{"abi":[{"type":"constructor","inputs":[{"name":"_signer","type":"address","internalType":"address"}],"stateMutability":"nonpayable"},{"type":"function","name":"dkimPublicKeyHashes","inputs":[{"name":"","type":"string","internalType":"string"},{"name":"","type":"bytes32","internalType":"bytes32"}],"outputs":[{"name":"","type":"bool","internalType":"bool"}],"stateMutability":"view"},{"type":"function","name":"isDKIMPublicKeyHashValid","inputs":[{"name":"domainName","type":"string","internalType":"string"},{"name":"publicKeyHash","type":"bytes32","internalType":"bytes32"}],"outputs":[{"name":"","type":"bool","internalType":"bool"}],"stateMutability":"view"},{"type":"function","name":"owner","inputs":[],"outputs":[{"name":"","type":"address","internalType":"address"}],"stateMutability":"view"},{"type":"function","name":"renounceOwnership","inputs":[],"outputs":[],"stateMutability":"nonpayable"},{"type":"function","name":"revokeDKIMPublicKeyHash","inputs":[{"name":"publicKeyHash","type":"bytes32","internalType":"bytes32"}],"outputs":[],"stateMutability":"nonpayable"},{"type":"function","name":"revokedDKIMPublicKeyHashes","inputs":[{"name":"","type":"bytes32","internalType":"bytes32"}],"outputs":[{"name":"","type":"bool","internalType":"bool"}],"stateMutability":"view"},{"type":"function","name":"setDKIMPublicKeyHash","inputs":[{"name":"domainName","type":"string","internalType":"string"},{"name":"publicKeyHash","type":"bytes32","internalType":"bytes32"}],"outputs":[],"stateMutability":"nonpayable"},{"type":"function","name":"setDKIMPublicKeyHashes","inputs":[{"name":"domainName","type":"string","internalType":"string"},{"name":"publicKeyHashes","type":"bytes32[]","internalType":"bytes32[]"}],"outputs":[],"stateMutability":"nonpayable"},{"type":"function","name":"transferOwnership","inputs":[{"name":"newOwner","type":"address","internalType":"address"}],"outputs":[],"stateMutability":"nonpayable"},{"type":"event","name":"DKIMPublicKeyHashRegistered","inputs":[{"name":"domainName","type":"string","indexed":false,"internalType":"string"},{"name":"publicKeyHash","type":"bytes32","indexed":false,"internalType":"bytes32"}],"anonymous":false},{"type":"event","name":"DKIMPublicKeyHashRevoked","inputs":[{"name":"publicKeyHash","type":"bytes32","indexed":false,"internalType":"bytes32"}],"anonymous":false},{"type":"event","name":"OwnershipTransferred","inputs":[{"name":"previousOwner","type":"address","indexed":true,"internalType":"address"},{"name":"newOwner","type":"address","indexed":true,"internalType":"address"}],"anonymous":false},{"type":"error","name":"OwnableInvalidOwner","inputs":[{"name":"owner","type":"address","internalType":"address"}]},{"type":"error","name":"OwnableUnauthorizedAccount","inputs":[{"name":"account","type":"address","internalType":"address"}]}],"bytecode":{"object":"0x608060405234801561001057600080fd5b506040516109ae3803806109ae83398101604081905261002f916100be565b806001600160a01b03811661005e57604051631e4fbdf760e01b81526000600482015260240160405180910390fd5b6100678161006e565b50506100ee565b600080546001600160a01b038381166001600160a01b0319831681178455604051919092169283917f8be0079c531659141344cd1fd0a4f28419497f9722a3daafe3b4186f6b6457e09190a35050565b6000602082840312156100d057600080fd5b81516001600160a01b03811681146100e757600080fd5b9392505050565b6108b1806100fd6000396000f3fe608060405234801561001057600080fd5b50600436106100a35760003560e01c80638da5cb5b11610076578063e7a7977a1161005b578063e7a7977a14610176578063f2fde38b14610189578063f49eb1641461019c57600080fd5b80638da5cb5b1461013b578063c15cffab1461016357600080fd5b80630690bd38146100a857806315d2512e146100fb57806342d7cb9814610110578063715018a614610133575b600080fd5b6100e66100b6366004610639565b81516020818401810180516001825292820194820194909420919093529091526000908152604090205460ff1681565b60405190151581526020015b60405180910390f35b61010e61010936600461067e565b6101af565b005b6100e661011e36600461067e565b60026020526000908152604090205460ff1681565b61010e61022b565b60005460405173ffffffffffffffffffffffffffffffffffffffff90911681526020016100f2565b61010e610171366004610639565b61023f565b6100e6610184366004610639565b610359565b61010e610197366004610697565b6103bd565b61010e6101aa3660046106d4565b610421565b6101b7610465565b6000818152600260205260409081902080547fffffffffffffffffffffffffffffffffffffffffffffffffffffffffffffff00166001179055517fb80fff2b4c6f3ddf804877927c77b2fe1871cecaa5ad43d2c7c42f417331f865906102209083815260200190565b60405180910390a150565b610233610465565b61023d60006104b8565b565b610247610465565b60008181526002602052604090205460ff16156102c5576040517f08c379a000000000000000000000000000000000000000000000000000000000815260206004820152601960248201527f63616e6e6f7420736574207265766f6b6564207075626b65790000000000000060448201526064015b60405180910390fd5b600180836040516102d691906107d7565b908152604080516020928190038301812060008681529352912080547fffffffffffffffffffffffffffffffffffffffffffffffffffffffffffffff0016921515929092179091557f510dac88eaf2dfbd53904241fc199ad46b2063e6bf6c3fb291f8ce86436634199061034d90849084906107f3565b60405180910390a15050565b60008181526002602052604081205460ff1615610378575060006103b7565b60018360405161038891906107d7565b90815260408051602092819003830190206000858152925290205460ff16156103b3575060016103b7565b5060005b92915050565b6103c5610465565b73ffffffffffffffffffffffffffffffffffffffff8116610415576040517f1e4fbdf7000000000000000000000000000000000000000000000000000000008152600060048201526024016102bc565b61041e816104b8565b50565b610429610465565b60005b8151811015610460576104588383838151811061044b5761044b61084c565b602002602001015161023f565b60010161042c565b505050565b60005473ffffffffffffffffffffffffffffffffffffffff16331461023d576040517f118cdaa70000000000000000000000000000000000000000000000000000000081523360048201526024016102bc565b6000805473ffffffffffffffffffffffffffffffffffffffff8381167fffffffffffffffffffffffff0000000000000000000000000000000000000000831681178455604051919092169283917f8be0079c531659141344cd1fd0a4f28419497f9722a3daafe3b4186f6b6457e09190a35050565b7f4e487b7100000000000000000000000000000000000000000000000000000000600052604160045260246000fd5b604051601f82017fffffffffffffffffffffffffffffffffffffffffffffffffffffffffffffffe016810167ffffffffffffffff811182821017156105a3576105a361052d565b604052919050565b600082601f8301126105bc57600080fd5b813567ffffffffffffffff8111156105d6576105d661052d565b61060760207fffffffffffffffffffffffffffffffffffffffffffffffffffffffffffffffe0601f8401160161055c565b81815284602083860101111561061c57600080fd5b816020850160208301376000918101602001919091529392505050565b6000806040838503121561064c57600080fd5b823567ffffffffffffffff81111561066357600080fd5b61066f858286016105ab565b95602094909401359450505050565b60006020828403121561069057600080fd5b5035919050565b6000602082840312156106a957600080fd5b813573ffffffffffffffffffffffffffffffffffffffff811681146106cd57600080fd5b9392505050565b600080604083850312156106e757600080fd5b823567ffffffffffffffff8111156106fe57600080fd5b61070a858286016105ab565b925050602083013567ffffffffffffffff81111561072757600080fd5b8301601f8101851361073857600080fd5b803567ffffffffffffffff8111156107525761075261052d565b8060051b6107626020820161055c565b9182526020818401810192908101908884111561077e57600080fd5b6020850194505b838510156107a457843580835260209586019590935090910190610785565b80955050505050509250929050565b60005b838110156107ce5781810151838201526020016107b6565b50506000910152565b600082516107e98184602087016107b3565b9190910192915050565b60408152600083518060408401526108128160608501602088016107b3565b602083019390935250601f919091017fffffffffffffffffffffffffffffffffffffffffffffffffffffffffffffffe01601606001919050565b7f4e487b7100000000000000000000000000000000000000000000000000000000600052603260045260246000fdfea2646970667358221220b9532c1ad7c7ee2a43c78729a39795980396c8c0435e8fddc807ca6612406c3464736f6c634300081a0033","linkReferences":{}},"methodIdentifiers":{"dkimPublicKeyHashes(string,bytes32)":"0690bd38","isDKIMPublicKeyHashValid(string,bytes32)":"e7a7977a","owner()":"8da5cb5b","renounceOwnership()":"715018a6","revokeDKIMPublicKeyHash(bytes32)":"15d2512e","revokedDKIMPublicKeyHashes(bytes32)":"42d7cb98","setDKIMPublicKeyHash(string,bytes32)":"c15cffab","setDKIMPublicKeyHashes(string,bytes32[])":"f49eb164","transferOwnership(address)":"f2fde38b"},"storageLayout":{"storage":[{"astId":203,"contract":"../../node_modules/@zk-email/contracts/DKIMRegistry.sol:DKIMRegistry","label":"_owner","offset":0,"slot":"0","type":"t_address"},{"astId":1219,"contract":"../../node_modules/@zk-email/contracts/DKIMRegistry.sol:DKIMRegistry","label":"dkimPublicKeyHashes","offset":0,"slot":"1","type":"t_mapping(t_string_memory_ptr,t_mapping(t_bytes32,t_bool))"},{"astId":1223,"contract":"../../node_modules/@zk-email/contracts/DKIMRegistry.sol:DKIMRegistry","label":"revokedDKIMPublicKeyHashes","offset":0,"slot":"2","type":"t_mapping(t_bytes32,t_bool)"}],"types":{"t_address":{"encoding":"inplace","label":"address","numberOfBytes":"20"},"t_bool":{"encoding":"inplace","label":"bool","numberOfBytes":"1"},"t_bytes32":{"encoding":"inplace","label":"bytes32","numberOfBytes":"32"},"t_mapping(t_bytes32,t_bool)":{"encoding":"mapping","key":"t_bytes32","label":"mapping(bytes32 => bool)","numberOfBytes":"32","value":"t_bool"},"t_mapping(t_string_memory_ptr,t_mapping(t_bytes32,t_bool))":{"encoding":"mapping","key":"t_string_memory_ptr","label":"mapping(string => mapping(bytes32 => bool))","numberOfBytes":"32","value":"t_mapping(t_bytes32,t_bool)"},"t_string_memory_ptr":{"encoding":"bytes","label":"string","numberOfBytes":"32"}}},"id":16}