{"abi":[{"type":"constructor","inputs":[{"name":"_owner","type":"address","internalType":"address"}],"stateMutability":"nonpayable"},{"type":"function","name":"disableAzp","inputs":[{"name":"domainName","type":"string","internalType":"string"}],"outputs":[],"stateMutability":"nonpayable"},{"type":"function","name":"dkimRegistry","inputs":[],"outputs":[{"name":"","type":"address","internalType":"contract DKIMRegistry"}],"stateMutability":"view"},{"type":"function","name":"isDKIMPublicKeyHashValid","inputs":[{"name":"domainName","type":"string","internalType":"string"},{"name":"publicKeyHash","type":"bytes32","internalType":"bytes32"}],"outputs":[{"name":"","type":"bool","internalType":"bool"}],"stateMutability":"view"},{"type":"function","name":"owner","inputs":[],"outputs":[{"name":"","type":"address","internalType":"address"}],"stateMutability":"view"},{"type":"function","name":"renounceOwnership","inputs":[],"outputs":[],"stateMutability":"nonpayable"},{"type":"function","name":"revokeDKIMPublicKeyHash","inputs":[{"name":"domainName","type":"string","internalType":"string"},{"name":"publicKeyHash","type":"bytes32","internalType":"bytes32"}],"outputs":[],"stateMutability":"nonpayable"},{"type":"function","name":"setDKIMPublicKeyHash","inputs":[{"name":"domainName","type":"string","internalType":"string"},{"name":"publicKeyHash","type":"bytes32","internalType":"bytes32"}],"outputs":[],"stateMutability":"nonpayable"},{"type":"function","name":"stringToArray","inputs":[{"name":"_strings","type":"string","internalType":"string"}],"outputs":[{"name":"","type":"string[]","internalType":"string[]"}],"stateMutability":"pure"},{"type":"function","name":"transferOwnership","inputs":[{"name":"newOwner","type":"address","internalType":"address"}],"outputs":[],"stateMutability":"nonpayable"},{"type":"function","name":"whitelistedClients","inputs":[{"name":"","type":"string","internalType":"string"}],"outputs":[{"name":"","type":"bool","internalType":"bool"}],"stateMutability":"view"},{"type":"event","name":"OwnershipTransferred","inputs":[{"name":"previousOwner","type":"address","indexed":true,"internalType":"address"},{"name":"newOwner","type":"address","indexed":true,"internalType":"address"}],"anonymous":false},{"type":"error","name":"OwnableInvalidOwner","inputs":[{"name":"owner","type":"address","internalType":"address"}]},{"type":"error","name":"OwnableUnauthorizedAccount","inputs":[{"name":"account","type":"address","internalType":"address"}]}],"bytecode":{"object":"0x608060405234801561001057600080fd5b5060405161246e38038061246e83398101604081905261002f91610125565b806001600160a01b03811661005e57604051631e4fbdf760e01b81526000600482015260240160405180910390fd5b610067816100c8565b503060405161007590610118565b6001600160a01b039091168152602001604051809103906000f0801580156100a1573d6000803e3d6000fd5b50600180546001600160a01b0319166001600160a01b039290921691909117905550610155565b600080546001600160a01b038381166001600160a01b0319831681178455604051919092169283917f8be0079c531659141344cd1fd0a4f28419497f9722a3daafe3b4186f6b6457e09190a35050565b6109ae80611ac083390190565b60006020828403121561013757600080fd5b81516001600160a01b038116811461014e57600080fd5b9392505050565b61195c806101646000396000f3fe608060405234801561001057600080fd5b50600436106100be5760003560e01c80638f8910b711610076578063dc6058701161005b578063dc605870146101b9578063e7a7977a146101cc578063f2fde38b146101df57600080fd5b80638f8910b714610168578063c15cffab146101a657600080fd5b8063715018a6116100a7578063715018a61461012d5780638da5cb5b146101375780638e408e3e1461015557600080fd5b80636423f1e2146100c357806364f86ad61461010d575b600080fd5b6001546100e39073ffffffffffffffffffffffffffffffffffffffff1681565b60405173ffffffffffffffffffffffffffffffffffffffff90911681526020015b60405180910390f35b61012061011b3660046113a2565b6101f2565b6040516101049190611445565b6101356103a1565b005b60005473ffffffffffffffffffffffffffffffffffffffff166100e3565b6101356101633660046113a2565b6103b5565b6101966101763660046113a2565b805160208183018101805160028252928201919093012091525460ff1681565b6040519015158152602001610104565b6101356101b43660046114c8565b6104cd565b6101356101c73660046114c8565b610902565b6101966101da3660046114c8565b610bcb565b6101356101ed36600461150d565b610dd0565b606060006102278360408051808201825260008082526020918201528151808301909252825182529182019181019190915290565b604080518082018252600181527f7c0000000000000000000000000000000000000000000000000000000000000060208083019182528351808501855260008082529082018190528451808601909552925184528301529192509061028c8383610e34565b610297906001611579565b67ffffffffffffffff8111156102af576102af611288565b6040519080825280602002602001820160405280156102e257816020015b60608152602001906001900390816102cd5790505b50905060005b8151811015610328576103036102fe8585610ed5565b610ef4565b8282815181106103155761031561158c565b60209081029190910101526001016102e8565b508051600314610399576040517f08c379a000000000000000000000000000000000000000000000000000000000815260206004820152601b60248201527f496e76616c6964206b69647c6973737c617a7020737472696e6773000000000060448201526064015b60405180910390fd5b949350505050565b6103a9610f5d565b6103b36000610fb0565b565b6040517f64f86ad600000000000000000000000000000000000000000000000000000000815260009030906364f86ad6906103f49085906004016115bb565b600060405180830381865afa158015610411573d6000803e3d6000fd5b505050506040513d6000823e601f3d9081017fffffffffffffffffffffffffffffffffffffffffffffffffffffffffffffffe016820160405261045791908101906115ce565b905060008160028151811061046e5761046e61158c565b60200260200101519050600060028260405161048a91906116cf565b90815260405190819003602001902080549115157fffffffffffffffffffffffffffffffffffffffffffffffffffffffffffffff00909216919091179055505050565b8151600003610538576040517f08c379a000000000000000000000000000000000000000000000000000000000815260206004820152601360248201527f496e76616c696420646f6d61696e206e616d65000000000000000000000000006044820152606401610390565b8061059f576040517f08c379a000000000000000000000000000000000000000000000000000000000815260206004820152601760248201527f496e76616c6964207075626c6963206b657920686173680000000000000000006044820152606401610390565b6040517f64f86ad600000000000000000000000000000000000000000000000000000000815260009030906364f86ad6906105de9086906004016115bb565b600060405180830381865afa1580156105fb573d6000803e3d6000fd5b505050506040513d6000823e601f3d9081017fffffffffffffffffffffffffffffffffffffffffffffffffffffffffffffffe016820160405261064191908101906115ce565b90506000816000815181106106585761065861158c565b6020026020010151826001815181106106735761067361158c565b602002602001015160405160200161068c9291906116eb565b60405160208183030381529060405290506106a78484610bcb565b1561070e576040517f08c379a000000000000000000000000000000000000000000000000000000000815260206004820152601c60248201527f7075626c69634b65794861736820697320616c726561647920736574000000006044820152606401610390565b6001546040517f42d7cb980000000000000000000000000000000000000000000000000000000081526004810185905273ffffffffffffffffffffffffffffffffffffffff909116906342d7cb9890602401602060405180830381865afa15801561077d573d6000803e3d6000fd5b505050506040513d601f19601f820116820180604052508101906107a19190611751565b15610808576040517f08c379a000000000000000000000000000000000000000000000000000000000815260206004820152601860248201527f7075626c69634b657948617368206973207265766f6b656400000000000000006044820152606401610390565b6001546040517fc15cffab00000000000000000000000000000000000000000000000000000000815273ffffffffffffffffffffffffffffffffffffffff9091169063c15cffab906108609084908790600401611773565b600060405180830381600087803b15801561087a57600080fd5b505af115801561088e573d6000803e3d6000fd5b5050505060016002836002815181106108a9576108a961158c565b60200260200101516040516108be91906116cf565b90815260405190819003602001902080549115157fffffffffffffffffffffffffffffffffffffffffffffffffffffffffffffff0090921691909117905550505050565b815160000361096d576040517f08c379a000000000000000000000000000000000000000000000000000000000815260206004820152601360248201527f496e76616c696420646f6d61696e206e616d65000000000000000000000000006044820152606401610390565b806109d4576040517f08c379a000000000000000000000000000000000000000000000000000000000815260206004820152601760248201527f496e76616c6964207075626c6963206b657920686173680000000000000000006044820152606401610390565b6109de8282610bcb565b1515600114610a49576040517f08c379a000000000000000000000000000000000000000000000000000000000815260206004820152601860248201527f7075626c69634b657948617368206973206e6f742073657400000000000000006044820152606401610390565b6001546040517f42d7cb980000000000000000000000000000000000000000000000000000000081526004810183905273ffffffffffffffffffffffffffffffffffffffff909116906342d7cb9890602401602060405180830381865afa158015610ab8573d6000803e3d6000fd5b505050506040513d601f19601f82011682018060405250810190610adc9190611751565b15610b43576040517f08c379a000000000000000000000000000000000000000000000000000000000815260206004820181905260248201527f7075626c69634b65794861736820697320616c7265616479207265766f6b65646044820152606401610390565b6001546040517f15d2512e0000000000000000000000000000000000000000000000000000000081526004810183905273ffffffffffffffffffffffffffffffffffffffff909116906315d2512e90602401600060405180830381600087803b158015610baf57600080fd5b505af1158015610bc3573d6000803e3d6000fd5b505050505050565b6040517f64f86ad6000000000000000000000000000000000000000000000000000000008152600090819030906364f86ad690610c0c9087906004016115bb565b600060405180830381865afa158015610c29573d6000803e3d6000fd5b505050506040513d6000823e601f3d9081017fffffffffffffffffffffffffffffffffffffffffffffffffffffffffffffffe0168201604052610c6f91908101906115ce565b9050600081600081518110610c8657610c8661158c565b602002602001015182600181518110610ca157610ca161158c565b6020026020010151604051602001610cba9291906116eb565b604080517fffffffffffffffffffffffffffffffffffffffffffffffffffffffffffffffe0818403018152908290526001547fe7a7977a00000000000000000000000000000000000000000000000000000000835290925073ffffffffffffffffffffffffffffffffffffffff169063e7a7977a90610d3f9084908890600401611773565b602060405180830381865afa158015610d5c573d6000803e3d6000fd5b505050506040513d601f19601f82011682018060405250810190610d809190611751565b8015610dc55750600282600281518110610d9c57610d9c61158c565b6020026020010151604051610db191906116cf565b9081526040519081900360200190205460ff165b925050505b92915050565b610dd8610f5d565b73ffffffffffffffffffffffffffffffffffffffff8116610e28576040517f1e4fbdf700000000000000000000000000000000000000000000000000000000815260006004820152602401610390565b610e3181610fb0565b50565b6000808260000151610e588560000151866020015186600001518760200151611025565b610e629190611579565b90505b83516020850151610e769190611579565b8111610ece5781610e8681611795565b9250508260000151610ebd856020015183610ea191906117cd565b8651610ead91906117cd565b8386600001518760200151611025565b610ec79190611579565b9050610e65565b5092915050565b6040805180820190915260008082526020820152610ece838383611145565b60606000826000015167ffffffffffffffff811115610f1557610f15611288565b6040519080825280601f01601f191660200182016040528015610f3f576020820181803683370190505b5090506000602082019050610ece81856020015186600001516111f0565b60005473ffffffffffffffffffffffffffffffffffffffff1633146103b3576040517f118cdaa7000000000000000000000000000000000000000000000000000000008152336004820152602401610390565b6000805473ffffffffffffffffffffffffffffffffffffffff8381167fffffffffffffffffffffffff0000000000000000000000000000000000000000831681178455604051919092169283917f8be0079c531659141344cd1fd0a4f28419497f9722a3daafe3b4186f6b6457e09190a35050565b6000838186851161113057602085116110df576000851561107157600161104d8760206117cd565b6110589060086117e0565b61106390600261191a565b61106d91906117cd565b1990505b845181166000876110828b8b611579565b61108c91906117cd565b855190915083165b8281146110d1578186106110b9576110ac8b8b611579565b9650505050505050610399565b856110c381611795565b965050838651169050611094565b859650505050505050610399565b508383206000905b6110f186896117cd565b821161112e5785832080820361110d5783945050505050610399565b611118600185611579565b935050818061112690611795565b9250506110e7565b505b61113a8787611579565b979650505050505050565b604080518082019091526000808252602082015260006111778560000151866020015186600001518760200151611025565b60208087018051918601919091525190915061119390826117cd565b8352845160208601516111a69190611579565b81036111b557600085526111e7565b835183516111c39190611579565b855186906111d29083906117cd565b90525083516111e19082611579565b60208601525b50909392505050565b602081106112285781518352611207602084611579565b9250611214602083611579565b91506112216020826117cd565b90506111f0565b7fffffffffffffffffffffffffffffffffffffffffffffffffffffffffffffffff811561127557600161125c8360206117cd565b6112689061010061191a565b61127291906117cd565b90505b9151835183169219169190911790915250565b7f4e487b7100000000000000000000000000000000000000000000000000000000600052604160045260246000fd5b604051601f82017fffffffffffffffffffffffffffffffffffffffffffffffffffffffffffffffe016810167ffffffffffffffff811182821017156112fe576112fe611288565b604052919050565b600067ffffffffffffffff82111561132057611320611288565b50601f017fffffffffffffffffffffffffffffffffffffffffffffffffffffffffffffffe01660200190565b600082601f83011261135d57600080fd5b813561137061136b82611306565b6112b7565b81815284602083860101111561138557600080fd5b816020850160208301376000918101602001919091529392505050565b6000602082840312156113b457600080fd5b813567ffffffffffffffff8111156113cb57600080fd5b6103998482850161134c565b60005b838110156113f25781810151838201526020016113da565b50506000910152565b600081518084526114138160208601602086016113d7565b601f017fffffffffffffffffffffffffffffffffffffffffffffffffffffffffffffffe0169290920160200192915050565b6000602082016020835280845180835260408501915060408160051b86010192506020860160005b828110156114bc577fffffffffffffffffffffffffffffffffffffffffffffffffffffffffffffffc08786030184526114a78583516113fb565b9450602093840193919091019060010161146d565b50929695505050505050565b600080604083850312156114db57600080fd5b823567ffffffffffffffff8111156114f257600080fd5b6114fe8582860161134c565b95602094909401359450505050565b60006020828403121561151f57600080fd5b813573ffffffffffffffffffffffffffffffffffffffff8116811461154357600080fd5b9392505050565b7f4e487b7100000000000000000000000000000000000000000000000000000000600052601160045260246000fd5b80820180821115610dca57610dca61154a565b7f4e487b7100000000000000000000000000000000000000000000000000000000600052603260045260246000fd5b60208152600061154360208301846113fb565b6000602082840312156115e057600080fd5b815167ffffffffffffffff8111156115f757600080fd5b8201601f8101841361160857600080fd5b805167ffffffffffffffff81111561162257611622611288565b8060051b611632602082016112b7565b9182526020818401810192908101908784111561164e57600080fd5b6020850192505b8383101561113a57825167ffffffffffffffff81111561167457600080fd5b8501603f8101891361168557600080fd5b602081015161169661136b82611306565b8181526040838301018b10156116ab57600080fd5b6116bc8260208301604086016113d7565b8452505060209283019290910190611655565b600082516116e18184602087016113d7565b9190910192915050565b6060815260006116fe60608301856113fb565b828103806020850152600182527f7c0000000000000000000000000000000000000000000000000000000000000060208301526040810160408501525061174860408201856113fb565b95945050505050565b60006020828403121561176357600080fd5b8151801515811461154357600080fd5b60408152600061178660408301856113fb565b90508260208301529392505050565b60007fffffffffffffffffffffffffffffffffffffffffffffffffffffffffffffffff82036117c6576117c661154a565b5060010190565b81810381811115610dca57610dca61154a565b8082028115828204841417610dca57610dca61154a565b6001815b6001841115611832578085048111156118165761181661154a565b600184161561182457908102905b60019390931c9280026117fb565b935093915050565b60008261184957506001610dca565b8161185657506000610dca565b816001811461186c576002811461187657611892565b6001915050610dca565b60ff8411156118875761188761154a565b50506001821b610dca565b5060208310610133831016604e8410600b84101617156118b5575081810a610dca565b6118e07fffffffffffffffffffffffffffffffffffffffffffffffffffffffffffffffff84846117f7565b807fffffffffffffffffffffffffffffffffffffffffffffffffffffffffffffffff048211156119125761191261154a565b029392505050565b6000611543838361183a56fea26469706673582212203f1e25af9632af30dcac806a01eb83eb8c0cebfbf6475b2f9d2f8794cc04d3c264736f6c634300081a0033608060405234801561001057600080fd5b506040516109ae3803806109ae83398101604081905261002f916100be565b806001600160a01b03811661005e57604051631e4fbdf760e01b81526000600482015260240160405180910390fd5b6100678161006e565b50506100ee565b600080546001600160a01b038381166001600160a01b0319831681178455604051919092169283917f8be0079c531659141344cd1fd0a4f28419497f9722a3daafe3b4186f6b6457e09190a35050565b6000602082840312156100d057600080fd5b81516001600160a01b03811681146100e757600080fd5b9392505050565b6108b1806100fd6000396000f3fe608060405234801561001057600080fd5b50600436106100a35760003560e01c80638da5cb5b11610076578063e7a7977a1161005b578063e7a7977a14610176578063f2fde38b14610189578063f49eb1641461019c57600080fd5b80638da5cb5b1461013b578063c15cffab1461016357600080fd5b80630690bd38146100a857806315d2512e146100fb57806342d7cb9814610110578063715018a614610133575b600080fd5b6100e66100b6366004610639565b81516020818401810180516001825292820194820194909420919093529091526000908152604090205460ff1681565b60405190151581526020015b60405180910390f35b61010e61010936600461067e565b6101af565b005b6100e661011e36600461067e565b60026020526000908152604090205460ff1681565b61010e61022b565b60005460405173ffffffffffffffffffffffffffffffffffffffff90911681526020016100f2565b61010e610171366004610639565b61023f565b6100e6610184366004610639565b610359565b61010e610197366004610697565b6103bd565b61010e6101aa3660046106d4565b610421565b6101b7610465565b6000818152600260205260409081902080547fffffffffffffffffffffffffffffffffffffffffffffffffffffffffffffff00166001179055517fb80fff2b4c6f3ddf804877927c77b2fe1871cecaa5ad43d2c7c42f417331f865906102209083815260200190565b60405180910390a150565b610233610465565b61023d60006104b8565b565b610247610465565b60008181526002602052604090205460ff16156102c5576040517f08c379a000000000000000000000000000000000000000000000000000000000815260206004820152601960248201527f63616e6e6f7420736574207265766f6b6564207075626b65790000000000000060448201526064015b60405180910390fd5b600180836040516102d691906107d7565b908152604080516020928190038301812060008681529352912080547fffffffffffffffffffffffffffffffffffffffffffffffffffffffffffffff0016921515929092179091557f510dac88eaf2dfbd53904241fc199ad46b2063e6bf6c3fb291f8ce86436634199061034d90849084906107f3565b60405180910390a15050565b60008181526002602052604081205460ff1615610378575060006103b7565b60018360405161038891906107d7565b90815260408051602092819003830190206000858152925290205460ff16156103b3575060016103b7565b5060005b92915050565b6103c5610465565b73ffffffffffffffffffffffffffffffffffffffff8116610415576040517f1e4fbdf7000000000000000000000000000000000000000000000000000000008152600060048201526024016102bc565b61041e816104b8565b50565b610429610465565b60005b8151811015610460576104588383838151811061044b5761044b61084c565b602002602001015161023f565b60010161042c565b505050565b60005473ffffffffffffffffffffffffffffffffffffffff16331461023d576040517f118cdaa70000000000000000000000000000000000000000000000000000000081523360048201526024016102bc565b6000805473ffffffffffffffffffffffffffffffffffffffff8381167fffffffffffffffffffffffff0000000000000000000000000000000000000000831681178455604051919092169283917f8be0079c531659141344cd1fd0a4f28419497f9722a3daafe3b4186f6b6457e09190a35050565b7f4e487b7100000000000000000000000000000000000000000000000000000000600052604160045260246000fd5b604051601f82017fffffffffffffffffffffffffffffffffffffffffffffffffffffffffffffffe016810167ffffffffffffffff811182821017156105a3576105a361052d565b604052919050565b600082601f8301126105bc57600080fd5b813567ffffffffffffffff8111156105d6576105d661052d565b61060760207fffffffffffffffffffffffffffffffffffffffffffffffffffffffffffffffe0601f8401160161055c565b81815284602083860101111561061c57600080fd5b816020850160208301376000918101602001919091529392505050565b6000806040838503121561064c57600080fd5b823567ffffffffffffffff81111561066357600080fd5b61066f858286016105ab565b95602094909401359450505050565b60006020828403121561069057600080fd5b5035919050565b6000602082840312156106a957600080fd5b813573ffffffffffffffffffffffffffffffffffffffff811681146106cd57600080fd5b9392505050565b600080604083850312156106e757600080fd5b823567ffffffffffffffff8111156106fe57600080fd5b61070a858286016105ab565b925050602083013567ffffffffffffffff81111561072757600080fd5b8301601f8101851361073857600080fd5b803567ffffffffffffffff8111156107525761075261052d565b8060051b6107626020820161055c565b9182526020818401810192908101908884111561077e57600080fd5b6020850194505b838510156107a457843580835260209586019590935090910190610785565b80955050505050509250929050565b60005b838110156107ce5781810151838201526020016107b6565b50506000910152565b600082516107e98184602087016107b3565b9190910192915050565b60408152600083518060408401526108128160608501602088016107b3565b602083019390935250601f919091017fffffffffffffffffffffffffffffffffffffffffffffffffffffffffffffffe01601606001919050565b7f4e487b7100000000000000000000000000000000000000000000000000000000600052603260045260246000fdfea2646970667358221220b9532c1ad7c7ee2a43c78729a39795980396c8c0435e8fddc807ca6612406c3464736f6c634300081a0033","linkReferences":{}},"methodIdentifiers":{"disableAzp(string)":"8e408e3e","dkimRegistry()":"6423f1e2","isDKIMPublicKeyHashValid(string,bytes32)":"e7a7977a","owner()":"8da5cb5b","renounceOwnership()":"715018a6","revokeDKIMPublicKeyHash(string,bytes32)":"dc605870","setDKIMPublicKeyHash(string,bytes32)":"c15cffab","stringToArray(string)":"64f86ad6","transferOwnership(address)":"f2fde38b","whitelistedClients(string)":"8f8910b7"},"storageLayout":{"storage":[{"astId":203,"contract":"src/utils/JwtRegistry.sol:JwtRegistry","label":"_owner","offset":0,"slot":"0","type":"t_address"},{"astId":42185,"contract":"src/utils/JwtRegistry.sol:JwtRegistry","label":"dkimRegistry","offset":0,"slot":"1","type":"t_contract(DKIMRegistry)1356"},{"astId":42189,"contract":"src/utils/JwtRegistry.sol:JwtRegistry","label":"whitelistedClients","offset":0,"slot":"2","type":"t_mapping(t_string_memory_ptr,t_bool)"}],"types":{"t_address":{"encoding":"inplace","label":"address","numberOfBytes":"20"},"t_bool":{"encoding":"inplace","label":"bool","numberOfBytes":"1"},"t_contract(DKIMRegistry)1356":{"encoding":"inplace","label":"contract DKIMRegistry","numberOfBytes":"20"},"t_mapping(t_string_memory_ptr,t_bool)":{"encoding":"mapping","key":"t_string_memory_ptr","label":"mapping(string => bool)","numberOfBytes":"32","value":"t_bool"},"t_string_memory_ptr":{"encoding":"bytes","label":"string","numberOfBytes":"32"}}},"id":72}