{"abi":[{"type":"function","name":"verifyProof","inputs":[{"name":"_pA","type":"uint256[2]","internalType":"uint256[2]"},{"name":"_pB","type":"uint256[2][2]","internalType":"uint256[2][2]"},{"name":"_pC","type":"uint256[2]","internalType":"uint256[2]"},{"name":"_pubSignals","type":"uint256[31]","internalType":"uint256[31]"}],"outputs":[{"name":"","type":"bool","internalType":"bool"}],"stateMutability":"view"}],"bytecode":{"object":"0x6080604052348015600f57600080fd5b506110808061001f6000396000f3fe608060405234801561001057600080fd5b506004361061002b5760003560e01c806344a173dd14610030575b600080fd5b61004361003e366004610fe3565b610057565b604051901515815260200160405180910390f35b6000610df0565b7f30644e72e131a029b85045b68181585d2833e84879b9709143e1f593f0000001811061008f576000805260206000f35b50565b600060405183815284602082015285604082015260408160608360076107d05a03fa9150816100c5576000805260206000f35b825160408201526020830151606082015260408360808360066107d05a03fa915050806100f6576000805260206000f35b5050505050565b7f2b6c1d554aaf766a3271ad444fcac26ff464d7dda294bb6d95fc8721b19885f485527f143373a6beaabc114732fbac086481e3d7f075943e939636ec1f40e05a79319760208601526000608086018661019a87357f1c73d38eba81e4b7f99988b7ce667d2829e096681a8f978f4e2e41480624fa5d7f1fd7da4f1204f71b298857102689f29dc2bcbe99826e747861c845ce2c5603c584610092565b6101ea60208801357f1c5420d8827ce8101ff7bf4d56179e026fc2f6a31408d1865414a786142b0d587f15d7b36c6513fd89566c152307188a92f0ce737496c1e6540572b426882bbbca84610092565b61023a60408801357f11024545a7f22505e7e3cb3909ce0e04fb6b6e47eb19f32c6488352a805579e07f052bc8ae1b25cea4049069d55ae0fa3bb8f08163fe30394decae36e8bbc3431784610092565b61028a60608801357f2efb84040cdea745a6e1c7854701d62ff683ab037aafc29428425f46f7f29ae77f0f5fe0269e89cc27d4b93d28413ab81f31b25c0552954dae36fa95df7845751d84610092565b6102da60808801357f074079aac57e669bcb6f4a86ad301160435674932243ef75a4ee0179d6ccdac37f289f19953eae2759a342a5ec3e77720222f9f21e051fe52f5059145480f434c384610092565b61032a60a08801357f239e643baa562dd84b9be4a29ccb6f4e7328c67a219a82542c8448ba66448e857f1a5620f80b39d9a3e451bb30fb038307e1420ca69088168e5bc07fd36d41cfdc84610092565b61037a60c08801357f12102e4971650ea991dcd640c3ff89a002eb60726a80e2c182c0a428985b317c7f2bc655885f58be08b3321d80faf8869dd8cead9486891d544e47a2b2cde7533384610092565b6103ca60e08801357f28baf129db285d2118bbc4c94e341cb1954588e2ec2539ae4df74455b4ff9e657f244a39823e6e994fc1dbf7951b0a75cf6b02332b42f23a06ca68f4afb8013e7484610092565b61041b6101008801357f2d2702639a76c4e016eb8cf4c97fa3375e9bc425748ce3498396d20d3b04a22a7f2e8376d148a1c4501ecf5699d1bf3502476726b3279d1534b1a8a2fd8b7c614884610092565b61046c6101208801357f0aea942c54510941bd741b5649d6e822dcafc810d39d0bfe5d55b388bbf512217f14d98941518f9ade2dca177d3a0f778b7073528175d74fec4abefaa70b9ebba784610092565b6104bd6101408801357f2e6c46942084cea89c3094943005a0bd468ef9db18de79d4a7ea674d66da08c07f20a8176d1ff7006a437e27f44fd24b84155477b2f345c504cf79b46b07e1847884610092565b61050e6101608801357f1338229201266c9531fa359829caa3ef5dfb393d30d7369480a7040e3abbfcdf7f0adc18f0e322c03219add837830dcf42c0c0885a6be7902d63ca84ffd7fb629884610092565b61055f6101808801357f07cea48b58192d2d62293edd9673bc93c86147d6d7dab72271b9631810d876217f2b66ff5dc7c57108956ae0a7d0dfc538113687ceb3cead0589c84a8ad670b6c684610092565b6105b06101a08801357f033ef73249704d65e381f2557fba8f3ba890cdefd23a2a096d8d31d70ff541d17f23c7d70e303f6eb082fb1177b34043296a162ab30bffad0826e92cf9a9d15b1f84610092565b6106016101c08801357f134bbeeb21c0b0b0ddfcecb6b3590fedfaa6e3dc4231990f0d0d88b9f32e21497f05119629a66def08445afe0ecf2f59b22cabafff50fa65e64c0d7ca9ef03676c84610092565b6106526101e08801357f2f11d918311621d10837fdee1e855d99502c00e6e162b7110f7c9741922a232b7f275185df47d3716a93fd214a5096c4047dcb7d6bf64c1f26ddb00020f8ecc42684610092565b6106a36102008801357f275e65bd692d00432048532f6bd6f2708f2d61033712293efa4b23fde5a3ed347f1aeb54d941a2baaed45f669ddc580825fad68fe0bc1b8272bb0225a3c23b763c84610092565b6106f46102208801357f2b20f3d6d2e39586cd3a6d040c3d98a42ef278b3acf8106447fbedf53a53d22d7f0449ac95eedd80d8c5e178962f796a74e7d0ebe9443f58c42eaff337a8e9299184610092565b6107456102408801357f0cb6b9d7b537adee18b2f3ec2501f2cc8b07967df31aa1044d93772fec3a8cb97f24ace7cde99368acab9905ab6cdb6360134e7e9a715b18f68e7f7d4ab40673df84610092565b6107966102608801357f2dcc12000f0543ee9aa4141b2a6c9c5982285a27097b9e2e13654ee267eb4d2b7f287a9bc716722fd8b13b43349839476a0af1b9a097cd89e0b7f2e70c6f307bde84610092565b6107e76102808801357f1f86079ef88909df238667cbcb00a856e636f49363e2f1dedbafcab10c3e9f857f25c03b54c3b781699f9ec799582f61ace9e7637fd10ef735710ccc320476237384610092565b6108386102a08801357f1b83a79b7fe6ef409940e04e90f0ac4f8a03aaf0ced7e721052808001d65629e7f209540381ab9c0abd06346b5183cae7fe56f2b94de56a6f2e8f7ab877861316e84610092565b6108896102c08801357f0d81216555cbd800b6de131c7a0addd2adba9ba6566cea156023f42d8ad773497f2e568b203a7158e94058c6628b00516555ae1f52539d423a56a62b411487de2484610092565b6108da6102e08801357f2d9345266c7cee2ccef4573f984eb75c8839c37def9abf05bffb6c01ea8122137f0da16ca9ee46bc236e64d742fc75508c36d7a4fb45844e884c3b5e2e1e389fb484610092565b61092a6103008801357e44db0d9b9dcff714aa7d4cb147e486961896e0656488cdd4883f47c09d0b577f04c1388259e980e306fbe4093f16e18e5ad5d73dc367e6273f577c5a976d30c084610092565b61097b6103208801357f130832bd188203180176d2464bcfbcf78d1f59fba96f00ef0e17abe74f0097ba7f1edbbae4daece56fd8f3d51fcca6e2682512465e2d8193a4d34c1c7bb3634aa384610092565b6109cc6103408801357f0b0965ac6e2057356fdbb924d554c8bcb4ae0f04b4d7a2ea43d4951cb225372d7f0a4a30bc10a34f9d27cf31ec96028c543c46c8c4435e50a10fd3eb2323b782c684610092565b610a1d6103608801357f25c12183017f1a26b5aef05fae48b425a8263dcc58e24afb364b95ab7307b2be7f0bb6f61d7561c59299198e6387d29ffbd006132c0ea25dcc2011b27a792db19884610092565b610a6e6103808801357f0c11a1e0ed651cff39f86c2f2b22794109849f93042a93bf459a28bb225e07587f16a68b4bc9ff88e8eb7164c4980aa2850c318de3a958f2e14ce321f618ea39b684610092565b610abf6103a08801357f1ab206d312a3aa176af132e17b4b6df110c7f4cdcc1c36e58cf550ca188be3917f08c44ccd044f21577ff966e95d93422c64ce0db73494d95c5cde9fc0b6a163f284610092565b610b106103c08801357f0dd2985469a2f24c45bf869f4388069b0c17a8bdceb8aee729274969d98c26f07f0b8d9b46d7e8b099352614e856d9a17a4409ff17b21b1bde21d6dc706500408284610092565b50823581527f30644e72e131a029b85045b68181585d97816a916871ca8d3c208c16d87cfd4760208401357f30644e72e131a029b85045b68181585d97816a916871ca8d3c208c16d87cfd4703066020820152833560408201526020840135606082015260408401356080820152606084013560a08201527f2d4d9aa7e302d9df41749d5507949d05dbea33fbb16c643b22f599a2be6df2e260c08201527f14bedd503c37ceb061d8ec60209fe345ce89830a19230301f076caff004d192660e08201527f0967032fcbf776d1afc985f88877f182d38480a653f2decaa9794cbc3bf3060c6101008201527f0e187847ad4c798374d0d6732bf501847dd68bc0e071241e0213bc7fc13db7ab6101208201527f304cfbd1e08a704a99f5e847d93f8c3caafddec46b7a0d379da69a4d112346a76101408201527f1739c1b1a457a8c7313123d24d2f9192f896b7c63eea05a9d57f06547ad0cec8610160820152600087015161018082015260206000018701516101a08201527f198e9393920d483a7260bfb731fb5d25f1aa493335a9e71297e485b7aef312c26101c08201527f1800deef121f1e76426a00665e5c4479674322d4f75edadd46debd5cd992f6ed6101e08201527f090689d0585ff075ec9e99ad690c3395bc4b313370b38ef355acdadcd122975b6102008201527f12c85ea5db8c6deb4aab71808dcb408fe3d1e7690c43d37b4ce6cc0166fa7daa610220820152843561024082015260208501356102608201527f0a36d2f2f941072dc6222d84652e7c67d3b801fe4dbce363980686bb7ae899da6102808201527f0edb2d95f70cf01558befb861bee04086705d1ab594a2567736bac7aa7c9cecc6102a08201527f1dd4400ac49ae1a159901c26d0cebe26145ac0236ba7cdf75d0fe2538efbe7586102c08201527f1ef2697f8fb02cad5a2d59635de7bb05fda84f7c9fe182388723e22d1459f0ae6102e08201526020816103008360086107d05a03fa9051169695505050505050565b6040516103808101604052610e08600084013561005e565b610e15602084013561005e565b610e22604084013561005e565b610e2f606084013561005e565b610e3c608084013561005e565b610e4960a084013561005e565b610e5660c084013561005e565b610e6360e084013561005e565b610e7161010084013561005e565b610e7f61012084013561005e565b610e8d61014084013561005e565b610e9b61016084013561005e565b610ea961018084013561005e565b610eb76101a084013561005e565b610ec56101c084013561005e565b610ed36101e084013561005e565b610ee161020084013561005e565b610eef61022084013561005e565b610efd61024084013561005e565b610f0b61026084013561005e565b610f1961028084013561005e565b610f276102a084013561005e565b610f356102c084013561005e565b610f436102e084013561005e565b610f5161030084013561005e565b610f5f61032084013561005e565b610f6d61034084013561005e565b610f7b61036084013561005e565b610f8961038084013561005e565b610f976103a084013561005e565b610fa56103c084013561005e565b610fb36103e084013561005e565b610fc0818486888a6100fd565b90508060005260206000f35b8060408101831015610fdd57600080fd5b92915050565b6000806000806104e08587031215610ffa57600080fd5b6110048686610fcc565b935060c085018681111561101757600080fd5b6040860193506110278782610fcc565b925050856104e08601111561103b57600080fd5b5091949093509091610100019056fea26469706673582212204d73517ef7aa7a60be3af40e633c375cd68ed470930fe25ea5e62cc5c428840564736f6c634300081a0033","linkReferences":{}},"methodIdentifiers":{"verifyProof(uint256[2],uint256[2][2],uint256[2],uint256[31])":"44a173dd"},"storageLayout":{"storage":[],"types":{}},"id":71}