{
    "abi": [
        {
            "type": "constructor",
            "inputs": [],
            "stateMutability": "nonpayable"
        },
        {
            "type": "function",
            "name": "AZP_BYTES",
            "inputs": [],
            "outputs": [
                {
                    "name": "",
                    "type": "uint256",
                    "internalType": "uint256"
                }
            ],
            "stateMutability": "view"
        },
        {
            "type": "function",
            "name": "AZP_FIELDS",
            "inputs": [],
            "outputs": [
                {
                    "name": "",
                    "type": "uint256",
                    "internalType": "uint256"
                }
            ],
            "stateMutability": "view"
        },
        {
            "type": "function",
            "name": "COMMAND_BYTES",
            "inputs": [],
            "outputs": [
                {
                    "name": "",
                    "type": "uint256",
                    "internalType": "uint256"
                }
            ],
            "stateMutability": "view"
        },
        {
            "type": "function",
            "name": "COMMAND_FIELDS",
            "inputs": [],
            "outputs": [
                {
                    "name": "",
                    "type": "uint256",
                    "internalType": "uint256"
                }
            ],
            "stateMutability": "view"
        },
        {
            "type": "function",
            "name": "ISS_BYTES",
            "inputs": [],
            "outputs": [
                {
                    "name": "",
                    "type": "uint256",
                    "internalType": "uint256"
                }
            ],
            "stateMutability": "view"
        },
        {
            "type": "function",
            "name": "ISS_FIELDS",
            "inputs": [],
            "outputs": [
                {
                    "name": "",
                    "type": "uint256",
                    "internalType": "uint256"
                }
            ],
            "stateMutability": "view"
        },
        {
            "type": "function",
            "name": "UPGRADE_INTERFACE_VERSION",
            "inputs": [],
            "outputs": [
                {
                    "name": "",
                    "type": "string",
                    "internalType": "string"
                }
            ],
            "stateMutability": "view"
        },
        {
            "type": "function",
            "name": "_packBytes2Fields",
            "inputs": [
                {
                    "name": "_bytes",
                    "type": "bytes",
                    "internalType": "bytes"
                },
                {
                    "name": "_paddedSize",
                    "type": "uint256",
                    "internalType": "uint256"
                }
            ],
            "outputs": [
                {
                    "name": "",
                    "type": "uint256[]",
                    "internalType": "uint256[]"
                }
            ],
            "stateMutability": "pure"
        },
        {
            "type": "function",
            "name": "getCommandBytes",
            "inputs": [],
            "outputs": [
                {
                    "name": "",
                    "type": "uint256",
                    "internalType": "uint256"
                }
            ],
            "stateMutability": "pure"
        },
        {
            "type": "function",
            "name": "initialize",
            "inputs": [
                {
                    "name": "_initialOwner",
                    "type": "address",
                    "internalType": "address"
                },
                {
                    "name": "_groth16Verifier",
                    "type": "address",
                    "internalType": "address"
                }
            ],
            "outputs": [],
            "stateMutability": "nonpayable"
        },
        {
            "type": "function",
            "name": "owner",
            "inputs": [],
            "outputs": [
                {
                    "name": "",
                    "type": "address",
                    "internalType": "address"
                }
            ],
            "stateMutability": "view"
        },
        {
            "type": "function",
            "name": "proxiableUUID",
            "inputs": [],
            "outputs": [
                {
                    "name": "",
                    "type": "bytes32",
                    "internalType": "bytes32"
                }
            ],
            "stateMutability": "view"
        },
        {
            "type": "function",
            "name": "renounceOwnership",
            "inputs": [],
            "outputs": [],
            "stateMutability": "nonpayable"
        },
        {
            "type": "function",
            "name": "stringToArray",
            "inputs": [
                {
                    "name": "_strings",
                    "type": "string",
                    "internalType": "string"
                }
            ],
            "outputs": [
                {
                    "name": "",
                    "type": "string[]",
                    "internalType": "string[]"
                }
            ],
            "stateMutability": "pure"
        },
        {
            "type": "function",
            "name": "stringToBytes32",
            "inputs": [
                {
                    "name": "source",
                    "type": "string",
                    "internalType": "string"
                }
            ],
            "outputs": [
                {
                    "name": "result",
                    "type": "bytes32",
                    "internalType": "bytes32"
                }
            ],
            "stateMutability": "pure"
        },
        {
            "type": "function",
            "name": "transferOwnership",
            "inputs": [
                {
                    "name": "newOwner",
                    "type": "address",
                    "internalType": "address"
                }
            ],
            "outputs": [],
            "stateMutability": "nonpayable"
        },
        {
            "type": "function",
            "name": "upgradeToAndCall",
            "inputs": [
                {
                    "name": "newImplementation",
                    "type": "address",
                    "internalType": "address"
                },
                {
                    "name": "data",
                    "type": "bytes",
                    "internalType": "bytes"
                }
            ],
            "outputs": [],
            "stateMutability": "payable"
        },
        {
            "type": "function",
            "name": "verifyEmailProof",
            "inputs": [
                {
                    "name": "proof",
                    "type": "tuple",
                    "internalType": "struct EmailProof",
                    "components": [
                        {
                            "name": "domainName",
                            "type": "string",
                            "internalType": "string"
                        },
                        {
                            "name": "publicKeyHash",
                            "type": "bytes32",
                            "internalType": "bytes32"
                        },
                        {
                            "name": "timestamp",
                            "type": "uint256",
                            "internalType": "uint256"
                        },
                        {
                            "name": "maskedCommand",
                            "type": "string",
                            "internalType": "string"
                        },
                        {
                            "name": "emailNullifier",
                            "type": "bytes32",
                            "internalType": "bytes32"
                        },
                        {
                            "name": "accountSalt",
                            "type": "bytes32",
                            "internalType": "bytes32"
                        },
                        {
                            "name": "isCodeExist",
                            "type": "bool",
                            "internalType": "bool"
                        },
                        {
                            "name": "proof",
                            "type": "bytes",
                            "internalType": "bytes"
                        }
                    ]
                }
            ],
            "outputs": [
                {
                    "name": "",
                    "type": "bool",
                    "internalType": "bool"
                }
            ],
            "stateMutability": "view"
        },
        {
            "type": "event",
            "name": "Initialized",
            "inputs": [
                {
                    "name": "version",
                    "type": "uint64",
                    "indexed": false,
                    "internalType": "uint64"
                }
            ],
            "anonymous": false
        },
        {
            "type": "event",
            "name": "OwnershipTransferred",
            "inputs": [
                {
                    "name": "previousOwner",
                    "type": "address",
                    "indexed": true,
                    "internalType": "address"
                },
                {
                    "name": "newOwner",
                    "type": "address",
                    "indexed": true,
                    "internalType": "address"
                }
            ],
            "anonymous": false
        },
        {
            "type": "event",
            "name": "Upgraded",
            "inputs": [
                {
                    "name": "implementation",
                    "type": "address",
                    "indexed": true,
                    "internalType": "address"
                }
            ],
            "anonymous": false
        },
        {
            "type": "error",
            "name": "AddressEmptyCode",
            "inputs": [
                {
                    "name": "target",
                    "type": "address",
                    "internalType": "address"
                }
            ]
        },
        {
            "type": "error",
            "name": "ERC1967InvalidImplementation",
            "inputs": [
                {
                    "name": "implementation",
                    "type": "address",
                    "internalType": "address"
                }
            ]
        },
        {
            "type": "error",
            "name": "ERC1967NonPayable",
            "inputs": []
        },
        {
            "type": "error",
            "name": "FailedInnerCall",
            "inputs": []
        },
        {
            "type": "error",
            "name": "InvalidInitialization",
            "inputs": []
        },
        {
            "type": "error",
            "name": "NotInitializing",
            "inputs": []
        },
        {
            "type": "error",
            "name": "OwnableInvalidOwner",
            "inputs": [
                {
                    "name": "owner",
                    "type": "address",
                    "internalType": "address"
                }
            ]
        },
        {
            "type": "error",
            "name": "OwnableUnauthorizedAccount",
            "inputs": [
                {
                    "name": "account",
                    "type": "address",
                    "internalType": "address"
                }
            ]
        },
        {
            "type": "error",
            "name": "UUPSUnauthorizedCallContext",
            "inputs": []
        },
        {
            "type": "error",
            "name": "UUPSUnsupportedProxiableUUID",
            "inputs": [
                {
                    "name": "slot",
                    "type": "bytes32",
                    "internalType": "bytes32"
                }
            ]
        }
    ],
    "bytecode": {
        "object": "0x60a060405230608052348015601357600080fd5b5060805161234c61003d60003960008181610e1901528181610e420152611063015261234c6000f3fe6080604052600436106101295760003560e01c80638e9c4a7f116100a5578063c2b84c3111610074578063cfb5192811610059578063cfb519281461033b578063e6a280051461035b578063f2fde38b1461038857600080fd5b8063c2b84c3114610311578063ca41543a1461032657600080fd5b80638e9c4a7f146102605780639241b06e146102755780639ecd83101461028b578063ad3cb1cc146102bb57600080fd5b806364f86ad6116100fc578063715018a6116100e1578063715018a6146101e257806377c85052146101f75780638da5cb5b1461020c57600080fd5b806364f86ad6146101a05780636fd061e5146101cd57600080fd5b8063485cc9551461012e5780634f1ef2861461015057806352d1902d146101635780635c80da311461018b575b600080fd5b34801561013a57600080fd5b5061014e6101493660046118e2565b6103a8565b005b61014e61015e366004611a5c565b610569565b34801561016f57600080fd5b50610178610588565b6040519081526020015b60405180910390f35b34801561019757600080fd5b50610178600281565b3480156101ac57600080fd5b506101c06101bb366004611aaa565b6105b7565b6040516101829190611b4d565b3480156101d957600080fd5b50610178601481565b3480156101ee57600080fd5b5061014e610766565b34801561020357600080fd5b50610178600e81565b34801561021857600080fd5b507f9016d09d72d40fdae2fd8ceac6b6234c7706214fd39c1cd1e609a0528c1993005460405173ffffffffffffffffffffffffffffffffffffffff9091168152602001610182565b34801561026c57600080fd5b50610178602081565b34801561028157600080fd5b5061017861025d81565b34801561029757600080fd5b506102ab6102a6366004611be9565b61077a565b6040519015158152602001610182565b3480156102c757600080fd5b506103046040518060400160405280600581526020017f352e302e3000000000000000000000000000000000000000000000000000000081525081565b6040516101829190611cec565b34801561031d57600080fd5b50610178600181565b34801561033257600080fd5b5061025d610178565b34801561034757600080fd5b50610178610356366004611aaa565b610beb565b34801561036757600080fd5b5061037b610376366004611cff565b610c1c565b6040516101829190611d44565b34801561039457600080fd5b5061014e6103a3366004611d87565b610d8c565b7ff0c57e16840df040f15088dc2f81fe391c3923bec73e23a9662efc9c229c6a00805468010000000000000000810460ff16159067ffffffffffffffff166000811580156103f35750825b905060008267ffffffffffffffff1660011480156104105750303b155b90508115801561041e575080155b15610455576040517ff92ee8a900000000000000000000000000000000000000000000000000000000815260040160405180910390fd5b84547fffffffffffffffffffffffffffffffffffffffffffffffff000000000000000016600117855583156104b65784547fffffffffffffffffffffffffffffffffffffffffffffff00ffffffffffffffff16680100000000000000001785555b6104bf87610df0565b600080547fffffffffffffffffffffffff00000000000000000000000000000000000000001673ffffffffffffffffffffffffffffffffffffffff881617905583156105605784547fffffffffffffffffffffffffffffffffffffffffffffff00ffffffffffffffff168555604051600181527fc7f505b2f371ae2175ee4913f4499e1f2633a7b5936321eed1cdaeb6115181d29060200160405180910390a15b50505050505050565b610571610e01565b61057a82610f05565b6105848282610f0d565b5050565b600061059261104b565b507f360894a13ba1a3210667c828492db98dca3e2076cc3735a920a3ca505d382bbc90565b606060006105ec8360408051808201825260008082526020918201528151808301909252825182529182019181019190915290565b604080518082018252600181527f7c0000000000000000000000000000000000000000000000000000000000000060208083019182528351808501855260008082529082018190528451808601909552925184528301529192509061065183836110ba565b61065c906001611dd1565b67ffffffffffffffff81111561067457610674611915565b6040519080825280602002602001820160405280156106a757816020015b60608152602001906001900390816106925790505b50905060005b81518110156106ed576106c86106c3858561115b565b61117a565b8282815181106106da576106da611de4565b60209081029190910101526001016106ad565b50805160031461075e576040517f08c379a000000000000000000000000000000000000000000000000000000000815260206004820152601b60248201527f496e76616c6964206b69647c6973737c617a7020737472696e6773000000000060448201526064015b60405180910390fd5b949350505050565b61076e6111e3565b6107786000611271565b565b6000806000808460e001518060200190518101906107989190611e5a565b9250925092506107a661189a565b85516040517f64f86ad600000000000000000000000000000000000000000000000000000000815260009130916364f86ad6916107e591600401611cec565b600060405180830381865afa158015610802573d6000803e3d6000fd5b505050506040513d6000823e601f3d9081017fffffffffffffffffffffffffffffffffffffffffffffffffffffffffffffffe01682016040526108489190810190611ee8565b905061086d8160008151811061086057610860611de4565b6020026020010151610beb565b8252805160609061089a908390600190811061088b5761088b611de4565b60200260200101516020610c1c565b905060005b60028110156108ed578181815181106108ba576108ba611de4565b6020026020010151848260016108d09190611dd1565b601d81106108e0576108e0611de4565b602002015260010161089f565b5060208801518361090060026001611dd1565b601d811061091057610910611de4565b602002015260808801518361092760026001611dd1565b610932906001611dd1565b601d811061094257610942611de4565b602002015260408801518361095960026001611dd1565b610964906002611dd1565b601d811061097457610974611de4565b6020020152606088015161098a9061025d610c1c565b905060005b60148110156109f4578181815181106109aa576109aa611de4565b60200260200101518482600260016109c29190611dd1565b6109cd906003611dd1565b6109d79190611dd1565b601d81106109e7576109e7611de4565b602002015260010161098f565b5060a0880151836014610a0960026001611dd1565b610a14906003611dd1565b610a1e9190611dd1565b601d8110610a2e57610a2e611de4565b60200201528151610a5b9083906002908110610a4c57610a4c611de4565b6020026020010151600e610c1c565b905060005b6001811015610adc57818181518110610a7b57610a7b611de4565b60200260200101518482601460026001610a959190611dd1565b610aa0906003611dd1565b610aaa9190611dd1565b610ab5906001611dd1565b610abf9190611dd1565b601d8110610acf57610acf611de4565b6020020152600101610a60565b508760c00151610aed576000610af0565b60015b60ff168360016014610b03600283611dd1565b610b0e906003611dd1565b610b189190611dd1565b610b23906001611dd1565b610b2d9190611dd1565b601d8110610b3d57610b3d611de4565b60200201526000546040517f54b8a14600000000000000000000000000000000000000000000000000000000815273ffffffffffffffffffffffffffffffffffffffff909116906354b8a14690610b9e908990899089908990600401612012565b602060405180830381865afa158015610bbb573d6000803e3d6000fd5b505050506040513d601f19601f82011682018060405250810190610bdf9190612097565b98975050505050505050565b600081604051602001610bfe91906120b4565b604051602081830303815290604052610c16906120d0565b92915050565b60606000610c2b601f84612144565b90506000601f610c3b8386612158565b610c45919061216b565b90508115610c5b57610c58600182611dd1565b90505b60008167ffffffffffffffff811115610c7657610c76611915565b604051908082528060200260200182016040528015610c9f578160200160208202803683370190505b50905060008060005b84811015610d7f5760005b601f811015610d765780610cc883601f61217f565b610cd29190611dd1565b935088841015610d765789518410610ced5760009250610d0a565b898481518110610cff57610cff611de4565b016020015160f81c92505b80600003610d365782858381518110610d2557610d25611de4565b602002602001018181525050610d6e565b610d4181600861217f565b83901b858381518110610d5657610d56611de4565b60200260200101818151610d6a9190611dd1565b9052505b600101610cb3565b50600101610ca8565b5091979650505050505050565b610d946111e3565b73ffffffffffffffffffffffffffffffffffffffff8116610de4576040517f1e4fbdf700000000000000000000000000000000000000000000000000000000815260006004820152602401610755565b610ded81611271565b50565b610df8611307565b610ded8161136e565b3073ffffffffffffffffffffffffffffffffffffffff7f0000000000000000000000000000000000000000000000000000000000000000161480610ece57507f000000000000000000000000000000000000000000000000000000000000000073ffffffffffffffffffffffffffffffffffffffff16610eb57f360894a13ba1a3210667c828492db98dca3e2076cc3735a920a3ca505d382bbc5473ffffffffffffffffffffffffffffffffffffffff1690565b73ffffffffffffffffffffffffffffffffffffffff1614155b15610778576040517fe07c8dba00000000000000000000000000000000000000000000000000000000815260040160405180910390fd5b610ded6111e3565b8173ffffffffffffffffffffffffffffffffffffffff166352d1902d6040518163ffffffff1660e01b8152600401602060405180830381865afa925050508015610f92575060408051601f3d9081017fffffffffffffffffffffffffffffffffffffffffffffffffffffffffffffffe0168201909252610f8f91810190612196565b60015b610fe0576040517f4c9c8ce300000000000000000000000000000000000000000000000000000000815273ffffffffffffffffffffffffffffffffffffffff83166004820152602401610755565b7f360894a13ba1a3210667c828492db98dca3e2076cc3735a920a3ca505d382bbc811461103c576040517faa1d49a400000000000000000000000000000000000000000000000000000000815260048101829052602401610755565b6110468383611376565b505050565b3073ffffffffffffffffffffffffffffffffffffffff7f00000000000000000000000000000000000000000000000000000000000000001614610778576040517fe07c8dba00000000000000000000000000000000000000000000000000000000815260040160405180910390fd5b60008082600001516110de85600001518660200151866000015187602001516113d9565b6110e89190611dd1565b90505b835160208501516110fc9190611dd1565b8111611154578161110c816121af565b92505082600001516111438560200151836111279190612158565b86516111339190612158565b83866000015187602001516113d9565b61114d9190611dd1565b90506110eb565b5092915050565b60408051808201909152600080825260208201526111548383836114f9565b60606000826000015167ffffffffffffffff81111561119b5761119b611915565b6040519080825280601f01601f1916602001820160405280156111c5576020820181803683370190505b509050600060208201905061115481856020015186600001516115a7565b336112227f9016d09d72d40fdae2fd8ceac6b6234c7706214fd39c1cd1e609a0528c1993005473ffffffffffffffffffffffffffffffffffffffff1690565b73ffffffffffffffffffffffffffffffffffffffff1614610778576040517f118cdaa7000000000000000000000000000000000000000000000000000000008152336004820152602401610755565b7f9016d09d72d40fdae2fd8ceac6b6234c7706214fd39c1cd1e609a0528c19930080547fffffffffffffffffffffffff0000000000000000000000000000000000000000811673ffffffffffffffffffffffffffffffffffffffff848116918217845560405192169182907f8be0079c531659141344cd1fd0a4f28419497f9722a3daafe3b4186f6b6457e090600090a3505050565b7ff0c57e16840df040f15088dc2f81fe391c3923bec73e23a9662efc9c229c6a005468010000000000000000900460ff16610778576040517fd7e6bcf800000000000000000000000000000000000000000000000000000000815260040160405180910390fd5b610d94611307565b61137f8261163f565b60405173ffffffffffffffffffffffffffffffffffffffff8316907fbc7cd75a20ee27fd9adebab32041f755214dbc6bffa90cc0225b39da2e5c2d3b90600090a28051156113d157611046828261170e565b610584611791565b600083818685116114e457602085116114935760008515611425576001611401876020612158565b61140c90600861217f565b61141790600261230a565b6114219190612158565b1990505b845181166000876114368b8b611dd1565b6114409190612158565b855190915083165b8281146114855781861061146d576114608b8b611dd1565b965050505050505061075e565b85611477816121af565b965050838651169050611448565b85965050505050505061075e565b508383206000905b6114a58689612158565b82116114e2578583208082036114c1578394505050505061075e565b6114cc600185611dd1565b93505081806114da906121af565b92505061149b565b505b6114ee8787611dd1565b979650505050505050565b6040805180820190915260008082526020820152600061152b85600001518660200151866000015187602001516113d9565b6020808701805191860191909152519091506115479082612158565b83528451602086015161155a9190611dd1565b8103611569576000855261159b565b835183516115779190611dd1565b85518690611586908390612158565b90525083516115959082611dd1565b60208601525b829150505b9392505050565b602081106115df57815183526115be602084611dd1565b92506115cb602083611dd1565b91506115d8602082612158565b90506115a7565b7fffffffffffffffffffffffffffffffffffffffffffffffffffffffffffffffff811561162c576001611613836020612158565b61161f9061010061230a565b6116299190612158565b90505b9151835183169219169190911790915250565b8073ffffffffffffffffffffffffffffffffffffffff163b6000036116a8576040517f4c9c8ce300000000000000000000000000000000000000000000000000000000815273ffffffffffffffffffffffffffffffffffffffff82166004820152602401610755565b7f360894a13ba1a3210667c828492db98dca3e2076cc3735a920a3ca505d382bbc80547fffffffffffffffffffffffff00000000000000000000000000000000000000001673ffffffffffffffffffffffffffffffffffffffff92909216919091179055565b60606000808473ffffffffffffffffffffffffffffffffffffffff168460405161173891906120b4565b600060405180830381855af49150503d8060008114611773576040519150601f19603f3d011682016040523d82523d6000602084013e611778565b606091505b50915091506117888583836117c9565b95945050505050565b3415610778576040517fb398979f00000000000000000000000000000000000000000000000000000000815260040160405180910390fd5b6060826117de576117d982611858565b6115a0565b8151158015611802575073ffffffffffffffffffffffffffffffffffffffff84163b155b15611851576040517f9996b31500000000000000000000000000000000000000000000000000000000815273ffffffffffffffffffffffffffffffffffffffff85166004820152602401610755565b50806115a0565b8051156118685780518082602001fd5b6040517f1425ea4200000000000000000000000000000000000000000000000000000000815260040160405180910390fd5b604051806103a00160405280601d906020820280368337509192915050565b803573ffffffffffffffffffffffffffffffffffffffff811681146118dd57600080fd5b919050565b600080604083850312156118f557600080fd5b6118fe836118b9565b915061190c602084016118b9565b90509250929050565b7f4e487b7100000000000000000000000000000000000000000000000000000000600052604160045260246000fd5b604051610100810167ffffffffffffffff8111828210171561196857611968611915565b60405290565b604051601f82017fffffffffffffffffffffffffffffffffffffffffffffffffffffffffffffffe016810167ffffffffffffffff811182821017156119b5576119b5611915565b604052919050565b600067ffffffffffffffff8211156119d7576119d7611915565b50601f017fffffffffffffffffffffffffffffffffffffffffffffffffffffffffffffffe01660200190565b600082601f830112611a1457600080fd5b8135602083016000611a2d611a28846119bd565b61196e565b9050828152858383011115611a4157600080fd5b82826020830137600092810160200192909252509392505050565b60008060408385031215611a6f57600080fd5b611a78836118b9565b9150602083013567ffffffffffffffff811115611a9457600080fd5b611aa085828601611a03565b9150509250929050565b600060208284031215611abc57600080fd5b813567ffffffffffffffff811115611ad357600080fd5b61075e84828501611a03565b60005b83811015611afa578181015183820152602001611ae2565b50506000910152565b60008151808452611b1b816020860160208601611adf565b601f017fffffffffffffffffffffffffffffffffffffffffffffffffffffffffffffffe0169290920160200192915050565b6000602082016020835280845180835260408501915060408160051b86010192506020860160005b82811015611bc4577fffffffffffffffffffffffffffffffffffffffffffffffffffffffffffffffc0878603018452611baf858351611b03565b94506020938401939190910190600101611b75565b50929695505050505050565b8015158114610ded57600080fd5b80356118dd81611bd0565b600060208284031215611bfb57600080fd5b813567ffffffffffffffff811115611c1257600080fd5b82016101008185031215611c2557600080fd5b611c2d611944565b813567ffffffffffffffff811115611c4457600080fd5b611c5086828501611a03565b8252506020828101359082015260408083013590820152606082013567ffffffffffffffff811115611c8157600080fd5b611c8d86828501611a03565b6060830152506080828101359082015260a08083013590820152611cb360c08301611bde565b60c082015260e082013567ffffffffffffffff811115611cd257600080fd5b611cde86828501611a03565b60e083015250949350505050565b6020815260006115a06020830184611b03565b60008060408385031215611d1257600080fd5b823567ffffffffffffffff811115611d2957600080fd5b611d3585828601611a03565b95602094909401359450505050565b602080825282518282018190526000918401906040840190835b81811015611d7c578351835260209384019390920191600101611d5e565b509095945050505050565b600060208284031215611d9957600080fd5b6115a0826118b9565b7f4e487b7100000000000000000000000000000000000000000000000000000000600052601160045260246000fd5b80820180821115610c1657610c16611da2565b7f4e487b7100000000000000000000000000000000000000000000000000000000600052603260045260246000fd5b600082601f830112611e2457600080fd5b611e2e604061196e565b806040840185811115611e4057600080fd5b845b81811015611d7c578051845260209384019301611e42565b60008060006101008486031215611e7057600080fd5b611e7a8585611e13565b925084605f850112611e8b57600080fd5b6040611e968161196e565b8060c0870188811115611ea857600080fd5b8388015b81811015611ecd57611ebe8a82611e13565b84526020909301928401611eac565b50819550611edb8982611e13565b9450505050509250925092565b600060208284031215611efa57600080fd5b815167ffffffffffffffff811115611f1157600080fd5b8201601f81018413611f2257600080fd5b805167ffffffffffffffff811115611f3c57611f3c611915565b8060051b611f4c6020820161196e565b91825260208184018101929081019087841115611f6857600080fd5b6020850192505b838310156114ee57825167ffffffffffffffff811115611f8e57600080fd5b8501603f81018913611f9f57600080fd5b6020810151611fb0611a28826119bd565b8181526040838301018b1015611fc557600080fd5b611fd6826020830160408601611adf565b8452505060209283019290910190611f6f565b8060005b600281101561200c578151845260209384019390910190600101611fed565b50505050565b6104a081016120218287611fe9565b604082018560005b60028110156120535761203d838351611fe9565b6040929092019160209190910190600101612029565b50505061206360c0830185611fe9565b61010082018360005b601d81101561208b57815183526020928301929091019060010161206c565b50505095945050505050565b6000602082840312156120a957600080fd5b81516115a081611bd0565b600082516120c6818460208701611adf565b9190910192915050565b8051602080830151919081101561210f577fffffffffffffffffffffffffffffffffffffffffffffffffffffffffffffffff8160200360031b1b821691505b50919050565b7f4e487b7100000000000000000000000000000000000000000000000000000000600052601260045260246000fd5b60008261215357612153612115565b500690565b81810381811115610c1657610c16611da2565b60008261217a5761217a612115565b500490565b8082028115828204841417610c1657610c16611da2565b6000602082840312156121a857600080fd5b5051919050565b60007fffffffffffffffffffffffffffffffffffffffffffffffffffffffffffffffff82036121e0576121e0611da2565b5060010190565b6001815b60018411156122225780850481111561220657612206611da2565b600184161561221457908102905b60019390931c9280026121eb565b935093915050565b60008261223957506001610c16565b8161224657506000610c16565b816001811461225c576002811461226657612282565b6001915050610c16565b60ff84111561227757612277611da2565b50506001821b610c16565b5060208310610133831016604e8410600b84101617156122a5575081810a610c16565b6122d07fffffffffffffffffffffffffffffffffffffffffffffffffffffffffffffffff84846121e7565b807fffffffffffffffffffffffffffffffffffffffffffffffffffffffffffffffff0482111561230257612302611da2565b029392505050565b60006115a0838361222a56fea264697066735822122028fdcafed4877d437c851c0a8ad9aeffad2784c614d6dd9eec1a4d0f75d6de7764736f6c634300081a0033",
        "linkReferences": {}
    },
    "methodIdentifiers": {
        "AZP_BYTES()": "77c85052",
        "AZP_FIELDS()": "c2b84c31",
        "COMMAND_BYTES()": "9241b06e",
        "COMMAND_FIELDS()": "6fd061e5",
        "ISS_BYTES()": "8e9c4a7f",
        "ISS_FIELDS()": "5c80da31",
        "UPGRADE_INTERFACE_VERSION()": "ad3cb1cc",
        "_packBytes2Fields(bytes,uint256)": "e6a28005",
        "getCommandBytes()": "ca41543a",
        "initialize(address,address)": "485cc955",
        "owner()": "8da5cb5b",
        "proxiableUUID()": "52d1902d",
        "renounceOwnership()": "715018a6",
        "stringToArray(string)": "64f86ad6",
        "stringToBytes32(string)": "cfb51928",
        "transferOwnership(address)": "f2fde38b",
        "upgradeToAndCall(address,bytes)": "4f1ef286",
        "verifyEmailProof((string,bytes32,uint256,string,bytes32,bytes32,bool,bytes))": "9ecd8310"
    },
    "storageLayout": {
        "storage": [
            {
                "astId": 42501,
                "contract": "src/utils/JwtVerifier.sol:JwtVerifier",
                "label": "groth16Verifier",
                "offset": 0,
                "slot": "0",
                "type": "t_contract(IJwtGroth16Verifier)41850"
            }
        ],
        "types": {
            "t_contract(IJwtGroth16Verifier)41850": {
                "encoding": "inplace",
                "label": "contract IJwtGroth16Verifier",
                "numberOfBytes": "20"
            }
        }
    },
    "id": 72
}