{
    "abi": [
        {
            "type": "constructor",
            "inputs": [],
            "stateMutability": "nonpayable"
        },
        {
            "type": "function",
            "name": "AZP_BYTES",
            "inputs": [],
            "outputs": [
                {
                    "name": "",
                    "type": "uint256",
                    "internalType": "uint256"
                }
            ],
            "stateMutability": "view"
        },
        {
            "type": "function",
            "name": "AZP_FIELDS",
            "inputs": [],
            "outputs": [
                {
                    "name": "",
                    "type": "uint256",
                    "internalType": "uint256"
                }
            ],
            "stateMutability": "view"
        },
        {
            "type": "function",
            "name": "COMMAND_BYTES",
            "inputs": [],
            "outputs": [
                {
                    "name": "",
                    "type": "uint256",
                    "internalType": "uint256"
                }
            ],
            "stateMutability": "view"
        },
        {
            "type": "function",
            "name": "COMMAND_FIELDS",
            "inputs": [],
            "outputs": [
                {
                    "name": "",
                    "type": "uint256",
                    "internalType": "uint256"
                }
            ],
            "stateMutability": "view"
        },
        {
            "type": "function",
            "name": "ISS_BYTES",
            "inputs": [],
            "outputs": [
                {
                    "name": "",
                    "type": "uint256",
                    "internalType": "uint256"
                }
            ],
            "stateMutability": "view"
        },
        {
            "type": "function",
            "name": "ISS_FIELDS",
            "inputs": [],
            "outputs": [
                {
                    "name": "",
                    "type": "uint256",
                    "internalType": "uint256"
                }
            ],
            "stateMutability": "view"
        },
        {
            "type": "function",
            "name": "UPGRADE_INTERFACE_VERSION",
            "inputs": [],
            "outputs": [
                {
                    "name": "",
                    "type": "string",
                    "internalType": "string"
                }
            ],
            "stateMutability": "view"
        },
        {
            "type": "function",
            "name": "_packBytes2Fields",
            "inputs": [
                {
                    "name": "_bytes",
                    "type": "bytes",
                    "internalType": "bytes"
                },
                {
                    "name": "_paddedSize",
                    "type": "uint256",
                    "internalType": "uint256"
                }
            ],
            "outputs": [
                {
                    "name": "",
                    "type": "uint256[]",
                    "internalType": "uint256[]"
                }
            ],
            "stateMutability": "pure"
        },
        {
            "type": "function",
            "name": "getCommandBytes",
            "inputs": [],
            "outputs": [
                {
                    "name": "",
                    "type": "uint256",
                    "internalType": "uint256"
                }
            ],
            "stateMutability": "pure"
        },
        {
            "type": "function",
            "name": "initialize",
            "inputs": [
                {
                    "name": "_initialOwner",
                    "type": "address",
                    "internalType": "address"
                },
                {
                    "name": "_groth16Verifier",
                    "type": "address",
                    "internalType": "address"
                }
            ],
            "outputs": [],
            "stateMutability": "nonpayable"
        },
        {
            "type": "function",
            "name": "owner",
            "inputs": [],
            "outputs": [
                {
                    "name": "",
                    "type": "address",
                    "internalType": "address"
                }
            ],
            "stateMutability": "view"
        },
        {
            "type": "function",
            "name": "proxiableUUID",
            "inputs": [],
            "outputs": [
                {
                    "name": "",
                    "type": "bytes32",
                    "internalType": "bytes32"
                }
            ],
            "stateMutability": "view"
        },
        {
            "type": "function",
            "name": "renounceOwnership",
            "inputs": [],
            "outputs": [],
            "stateMutability": "nonpayable"
        },
        {
            "type": "function",
            "name": "stringToArray",
            "inputs": [
                {
                    "name": "_strings",
                    "type": "string",
                    "internalType": "string"
                }
            ],
            "outputs": [
                {
                    "name": "",
                    "type": "string[]",
                    "internalType": "string[]"
                }
            ],
            "stateMutability": "pure"
        },
        {
            "type": "function",
            "name": "stringToBytes32",
            "inputs": [
                {
                    "name": "source",
                    "type": "string",
                    "internalType": "string"
                }
            ],
            "outputs": [
                {
                    "name": "result",
                    "type": "bytes32",
                    "internalType": "bytes32"
                }
            ],
            "stateMutability": "pure"
        },
        {
            "type": "function",
            "name": "transferOwnership",
            "inputs": [
                {
                    "name": "newOwner",
                    "type": "address",
                    "internalType": "address"
                }
            ],
            "outputs": [],
            "stateMutability": "nonpayable"
        },
        {
            "type": "function",
            "name": "upgradeToAndCall",
            "inputs": [
                {
                    "name": "newImplementation",
                    "type": "address",
                    "internalType": "address"
                },
                {
                    "name": "data",
                    "type": "bytes",
                    "internalType": "bytes"
                }
            ],
            "outputs": [],
            "stateMutability": "payable"
        },
        {
            "type": "function",
            "name": "verifyEmailProof",
            "inputs": [
                {
                    "name": "proof",
                    "type": "tuple",
                    "internalType": "struct EmailProof",
                    "components": [
                        {
                            "name": "domainName",
                            "type": "string",
                            "internalType": "string"
                        },
                        {
                            "name": "publicKeyHash",
                            "type": "bytes32",
                            "internalType": "bytes32"
                        },
                        {
                            "name": "timestamp",
                            "type": "uint256",
                            "internalType": "uint256"
                        },
                        {
                            "name": "maskedCommand",
                            "type": "string",
                            "internalType": "string"
                        },
                        {
                            "name": "emailNullifier",
                            "type": "bytes32",
                            "internalType": "bytes32"
                        },
                        {
                            "name": "accountSalt",
                            "type": "bytes32",
                            "internalType": "bytes32"
                        },
                        {
                            "name": "isCodeExist",
                            "type": "bool",
                            "internalType": "bool"
                        },
                        {
                            "name": "proof",
                            "type": "bytes",
                            "internalType": "bytes"
                        }
                    ]
                }
            ],
            "outputs": [
                {
                    "name": "",
                    "type": "bool",
                    "internalType": "bool"
                }
            ],
            "stateMutability": "nonpayable"
        },
        {
            "type": "event",
            "name": "Initialized",
            "inputs": [
                {
                    "name": "version",
                    "type": "uint64",
                    "indexed": false,
                    "internalType": "uint64"
                }
            ],
            "anonymous": false
        },
        {
            "type": "event",
            "name": "JWTProofVerified",
            "inputs": [
                {
                    "name": "maskedCommand",
                    "type": "string",
                    "indexed": false,
                    "internalType": "string"
                }
            ],
            "anonymous": false
        },
        {
            "type": "event",
            "name": "OwnershipTransferred",
            "inputs": [
                {
                    "name": "previousOwner",
                    "type": "address",
                    "indexed": true,
                    "internalType": "address"
                },
                {
                    "name": "newOwner",
                    "type": "address",
                    "indexed": true,
                    "internalType": "address"
                }
            ],
            "anonymous": false
        },
        {
            "type": "event",
            "name": "Upgraded",
            "inputs": [
                {
                    "name": "implementation",
                    "type": "address",
                    "indexed": true,
                    "internalType": "address"
                }
            ],
            "anonymous": false
        },
        {
            "type": "error",
            "name": "AddressEmptyCode",
            "inputs": [
                {
                    "name": "target",
                    "type": "address",
                    "internalType": "address"
                }
            ]
        },
        {
            "type": "error",
            "name": "ERC1967InvalidImplementation",
            "inputs": [
                {
                    "name": "implementation",
                    "type": "address",
                    "internalType": "address"
                }
            ]
        },
        {
            "type": "error",
            "name": "ERC1967NonPayable",
            "inputs": []
        },
        {
            "type": "error",
            "name": "FailedInnerCall",
            "inputs": []
        },
        {
            "type": "error",
            "name": "InvalidInitialization",
            "inputs": []
        },
        {
            "type": "error",
            "name": "NotInitializing",
            "inputs": []
        },
        {
            "type": "error",
            "name": "OwnableInvalidOwner",
            "inputs": [
                {
                    "name": "owner",
                    "type": "address",
                    "internalType": "address"
                }
            ]
        },
        {
            "type": "error",
            "name": "OwnableUnauthorizedAccount",
            "inputs": [
                {
                    "name": "account",
                    "type": "address",
                    "internalType": "address"
                }
            ]
        },
        {
            "type": "error",
            "name": "UUPSUnauthorizedCallContext",
            "inputs": []
        },
        {
            "type": "error",
            "name": "UUPSUnsupportedProxiableUUID",
            "inputs": [
                {
                    "name": "slot",
                    "type": "bytes32",
                    "internalType": "bytes32"
                }
            ]
        }
    ],
    "bytecode": {
        "object": "0x60a060405230608052348015601357600080fd5b506080516123ed61003d60003960008181610eba01528181610ee3015261110401526123ed6000f3fe6080604052600436106101295760003560e01c80638e9c4a7f116100a5578063c2b84c3111610074578063cfb5192811610059578063cfb519281461033b578063e6a280051461035b578063f2fde38b1461038857600080fd5b8063c2b84c3114610311578063ca41543a1461032657600080fd5b80638e9c4a7f146102605780639241b06e146102755780639ecd83101461028b578063ad3cb1cc146102bb57600080fd5b806364f86ad6116100fc578063715018a6116100e1578063715018a6146101e257806377c85052146101f75780638da5cb5b1461020c57600080fd5b806364f86ad6146101a05780636fd061e5146101cd57600080fd5b8063485cc9551461012e5780634f1ef2861461015057806352d1902d146101635780635c80da311461018b575b600080fd5b34801561013a57600080fd5b5061014e610149366004611983565b6103a8565b005b61014e61015e366004611afd565b610569565b34801561016f57600080fd5b50610178610588565b6040519081526020015b60405180910390f35b34801561019757600080fd5b50610178600281565b3480156101ac57600080fd5b506101c06101bb366004611b4b565b6105b7565b6040516101829190611bee565b3480156101d957600080fd5b50610178601481565b3480156101ee57600080fd5b5061014e610766565b34801561020357600080fd5b50610178604881565b34801561021857600080fd5b507f9016d09d72d40fdae2fd8ceac6b6234c7706214fd39c1cd1e609a0528c1993005460405173ffffffffffffffffffffffffffffffffffffffff9091168152602001610182565b34801561026c57600080fd5b50610178602081565b34801561028157600080fd5b5061017861025d81565b34801561029757600080fd5b506102ab6102a6366004611c8a565b61077a565b6040519015158152602001610182565b3480156102c757600080fd5b506103046040518060400160405280600581526020017f352e302e3000000000000000000000000000000000000000000000000000000081525081565b6040516101829190611d8d565b34801561031d57600080fd5b50610178600381565b34801561033257600080fd5b5061025d610178565b34801561034757600080fd5b50610178610356366004611b4b565b610c8c565b34801561036757600080fd5b5061037b610376366004611da0565b610cbd565b6040516101829190611de5565b34801561039457600080fd5b5061014e6103a3366004611e28565b610e2d565b7ff0c57e16840df040f15088dc2f81fe391c3923bec73e23a9662efc9c229c6a00805468010000000000000000810460ff16159067ffffffffffffffff166000811580156103f35750825b905060008267ffffffffffffffff1660011480156104105750303b155b90508115801561041e575080155b15610455576040517ff92ee8a900000000000000000000000000000000000000000000000000000000815260040160405180910390fd5b84547fffffffffffffffffffffffffffffffffffffffffffffffff000000000000000016600117855583156104b65784547fffffffffffffffffffffffffffffffffffffffffffffff00ffffffffffffffff16680100000000000000001785555b6104bf87610e91565b600080547fffffffffffffffffffffffff00000000000000000000000000000000000000001673ffffffffffffffffffffffffffffffffffffffff881617905583156105605784547fffffffffffffffffffffffffffffffffffffffffffffff00ffffffffffffffff168555604051600181527fc7f505b2f371ae2175ee4913f4499e1f2633a7b5936321eed1cdaeb6115181d29060200160405180910390a15b50505050505050565b610571610ea2565b61057a82610fa6565b6105848282610fae565b5050565b60006105926110ec565b507f360894a13ba1a3210667c828492db98dca3e2076cc3735a920a3ca505d382bbc90565b606060006105ec8360408051808201825260008082526020918201528151808301909252825182529182019181019190915290565b604080518082018252600181527f7c00000000000000000000000000000000000000000000000000000000000000602080830191825283518085018552600080825290820181905284518086019095529251845283015291925090610651838361115b565b61065c906001611e72565b67ffffffffffffffff811115610674576106746119b6565b6040519080825280602002602001820160405280156106a757816020015b60608152602001906001900390816106925790505b50905060005b81518110156106ed576106c86106c385856111fc565b61121b565b8282815181106106da576106da611e85565b60209081029190910101526001016106ad565b50805160031461075e576040517f08c379a000000000000000000000000000000000000000000000000000000000815260206004820152601b60248201527f496e76616c6964206b69647c6973737c617a7020737472696e6773000000000060448201526064015b60405180910390fd5b949350505050565b61076e611284565b6107786000611312565b565b6000806000808460e001518060200190518101906107989190611efb565b9250925092506107a661193b565b85516040517f64f86ad600000000000000000000000000000000000000000000000000000000815260009130916364f86ad6916107e591600401611d8d565b600060405180830381865afa158015610802573d6000803e3d6000fd5b505050506040513d6000823e601f3d9081017fffffffffffffffffffffffffffffffffffffffffffffffffffffffffffffffe01682016040526108489190810190611f89565b905061086d8160008151811061086057610860611e85565b6020026020010151610c8c565b8252805160609061089a908390600190811061088b5761088b611e85565b60200260200101516020610cbd565b905060005b60028110156108ed578181815181106108ba576108ba611e85565b6020026020010151848260016108d09190611e72565b601f81106108e0576108e0611e85565b602002015260010161089f565b5060208801518361090060026001611e72565b601f811061091057610910611e85565b602002015260808801518361092760026001611e72565b610932906001611e72565b601f811061094257610942611e85565b602002015260408801518361095960026001611e72565b610964906002611e72565b601f811061097457610974611e85565b6020020152606088015161098a9061025d610cbd565b905060005b60148110156109f4578181815181106109aa576109aa611e85565b60200260200101518482600260016109c29190611e72565b6109cd906003611e72565b6109d79190611e72565b601f81106109e7576109e7611e85565b602002015260010161098f565b5060a0880151836014610a0960026001611e72565b610a14906003611e72565b610a1e9190611e72565b601f8110610a2e57610a2e611e85565b60200201528151610a5b9083906002908110610a4c57610a4c611e85565b60200260200101516048610cbd565b905060005b6003811015610adc57818181518110610a7b57610a7b611e85565b60200260200101518482601460026001610a959190611e72565b610aa0906003611e72565b610aaa9190611e72565b610ab5906001611e72565b610abf9190611e72565b601f8110610acf57610acf611e85565b6020020152600101610a60565b508760c00151610aed576000610af0565b60015b60ff168360036014610b0460026001611e72565b610b0f906003611e72565b610b199190611e72565b610b24906001611e72565b610b2e9190611e72565b601f8110610b3e57610b3e611e85565b60200201526000546040517f44a173dd00000000000000000000000000000000000000000000000000000000815273ffffffffffffffffffffffffffffffffffffffff909116906344a173dd90610b9f9089908990899089906004016120b3565b602060405180830381865afa158015610bbc573d6000803e3d6000fd5b505050506040513d601f19601f82011682018060405250810190610be09190612138565b610c46576040517f08c379a000000000000000000000000000000000000000000000000000000000815260206004820152600d60248201527f496e76616c69642070726f6f66000000000000000000000000000000000000006044820152606401610755565b7f46480c185d89a64c45e1ed6ade71de7f7b17403f60d7ae199d7fb089e125f2158860600151604051610c799190611d8d565b60405180910390a1505050505050919050565b600081604051602001610c9f9190612155565b604051602081830303815290604052610cb790612171565b92915050565b60606000610ccc601f846121e5565b90506000601f610cdc83866121f9565b610ce6919061220c565b90508115610cfc57610cf9600182611e72565b90505b60008167ffffffffffffffff811115610d1757610d176119b6565b604051908082528060200260200182016040528015610d40578160200160208202803683370190505b50905060008060005b84811015610e205760005b601f811015610e175780610d6983601f612220565b610d739190611e72565b935088841015610e175789518410610d8e5760009250610dab565b898481518110610da057610da0611e85565b016020015160f81c92505b80600003610dd75782858381518110610dc657610dc6611e85565b602002602001018181525050610e0f565b610de2816008612220565b83901b858381518110610df757610df7611e85565b60200260200101818151610e0b9190611e72565b9052505b600101610d54565b50600101610d49565b5091979650505050505050565b610e35611284565b73ffffffffffffffffffffffffffffffffffffffff8116610e85576040517f1e4fbdf700000000000000000000000000000000000000000000000000000000815260006004820152602401610755565b610e8e81611312565b50565b610e996113a8565b610e8e8161140f565b3073ffffffffffffffffffffffffffffffffffffffff7f0000000000000000000000000000000000000000000000000000000000000000161480610f6f57507f000000000000000000000000000000000000000000000000000000000000000073ffffffffffffffffffffffffffffffffffffffff16610f567f360894a13ba1a3210667c828492db98dca3e2076cc3735a920a3ca505d382bbc5473ffffffffffffffffffffffffffffffffffffffff1690565b73ffffffffffffffffffffffffffffffffffffffff1614155b15610778576040517fe07c8dba00000000000000000000000000000000000000000000000000000000815260040160405180910390fd5b610e8e611284565b8173ffffffffffffffffffffffffffffffffffffffff166352d1902d6040518163ffffffff1660e01b8152600401602060405180830381865afa925050508015611033575060408051601f3d9081017fffffffffffffffffffffffffffffffffffffffffffffffffffffffffffffffe016820190925261103091810190612237565b60015b611081576040517f4c9c8ce300000000000000000000000000000000000000000000000000000000815273ffffffffffffffffffffffffffffffffffffffff83166004820152602401610755565b7f360894a13ba1a3210667c828492db98dca3e2076cc3735a920a3ca505d382bbc81146110dd576040517faa1d49a400000000000000000000000000000000000000000000000000000000815260048101829052602401610755565b6110e78383611417565b505050565b3073ffffffffffffffffffffffffffffffffffffffff7f00000000000000000000000000000000000000000000000000000000000000001614610778576040517fe07c8dba00000000000000000000000000000000000000000000000000000000815260040160405180910390fd5b600080826000015161117f856000015186602001518660000151876020015161147a565b6111899190611e72565b90505b8351602085015161119d9190611e72565b81116111f557816111ad81612250565b92505082600001516111e48560200151836111c891906121f9565b86516111d491906121f9565b838660000151876020015161147a565b6111ee9190611e72565b905061118c565b5092915050565b60408051808201909152600080825260208201526111f583838361159a565b60606000826000015167ffffffffffffffff81111561123c5761123c6119b6565b6040519080825280601f01601f191660200182016040528015611266576020820181803683370190505b50905060006020820190506111f58185602001518660000151611648565b336112c37f9016d09d72d40fdae2fd8ceac6b6234c7706214fd39c1cd1e609a0528c1993005473ffffffffffffffffffffffffffffffffffffffff1690565b73ffffffffffffffffffffffffffffffffffffffff1614610778576040517f118cdaa7000000000000000000000000000000000000000000000000000000008152336004820152602401610755565b7f9016d09d72d40fdae2fd8ceac6b6234c7706214fd39c1cd1e609a0528c19930080547fffffffffffffffffffffffff0000000000000000000000000000000000000000811673ffffffffffffffffffffffffffffffffffffffff848116918217845560405192169182907f8be0079c531659141344cd1fd0a4f28419497f9722a3daafe3b4186f6b6457e090600090a3505050565b7ff0c57e16840df040f15088dc2f81fe391c3923bec73e23a9662efc9c229c6a005468010000000000000000900460ff16610778576040517fd7e6bcf800000000000000000000000000000000000000000000000000000000815260040160405180910390fd5b610e356113a8565b611420826116e0565b60405173ffffffffffffffffffffffffffffffffffffffff8316907fbc7cd75a20ee27fd9adebab32041f755214dbc6bffa90cc0225b39da2e5c2d3b90600090a2805115611472576110e782826117af565b610584611832565b60008381868511611585576020851161153457600085156114c65760016114a28760206121f9565b6114ad906008612220565b6114b89060026123ab565b6114c291906121f9565b1990505b845181166000876114d78b8b611e72565b6114e191906121f9565b855190915083165b8281146115265781861061150e576115018b8b611e72565b965050505050505061075e565b8561151881612250565b9650508386511690506114e9565b85965050505050505061075e565b508383206000905b61154686896121f9565b821161158357858320808203611562578394505050505061075e565b61156d600185611e72565b935050818061157b90612250565b92505061153c565b505b61158f8787611e72565b979650505050505050565b604080518082019091526000808252602082015260006115cc856000015186602001518660000151876020015161147a565b6020808701805191860191909152519091506115e890826121f9565b8352845160208601516115fb9190611e72565b810361160a576000855261163c565b835183516116189190611e72565b855186906116279083906121f9565b90525083516116369082611e72565b60208601525b829150505b9392505050565b60208110611680578151835261165f602084611e72565b925061166c602083611e72565b91506116796020826121f9565b9050611648565b7fffffffffffffffffffffffffffffffffffffffffffffffffffffffffffffffff81156116cd5760016116b48360206121f9565b6116c0906101006123ab565b6116ca91906121f9565b90505b9151835183169219169190911790915250565b8073ffffffffffffffffffffffffffffffffffffffff163b600003611749576040517f4c9c8ce300000000000000000000000000000000000000000000000000000000815273ffffffffffffffffffffffffffffffffffffffff82166004820152602401610755565b7f360894a13ba1a3210667c828492db98dca3e2076cc3735a920a3ca505d382bbc80547fffffffffffffffffffffffff00000000000000000000000000000000000000001673ffffffffffffffffffffffffffffffffffffffff92909216919091179055565b60606000808473ffffffffffffffffffffffffffffffffffffffff16846040516117d99190612155565b600060405180830381855af49150503d8060008114611814576040519150601f19603f3d011682016040523d82523d6000602084013e611819565b606091505b509150915061182985838361186a565b95945050505050565b3415610778576040517fb398979f00000000000000000000000000000000000000000000000000000000815260040160405180910390fd5b60608261187f5761187a826118f9565b611641565b81511580156118a3575073ffffffffffffffffffffffffffffffffffffffff84163b155b156118f2576040517f9996b31500000000000000000000000000000000000000000000000000000000815273ffffffffffffffffffffffffffffffffffffffff85166004820152602401610755565b5080611641565b8051156119095780518082602001fd5b6040517f1425ea4200000000000000000000000000000000000000000000000000000000815260040160405180910390fd5b604051806103e00160405280601f906020820280368337509192915050565b803573ffffffffffffffffffffffffffffffffffffffff8116811461197e57600080fd5b919050565b6000806040838503121561199657600080fd5b61199f8361195a565b91506119ad6020840161195a565b90509250929050565b7f4e487b7100000000000000000000000000000000000000000000000000000000600052604160045260246000fd5b604051610100810167ffffffffffffffff81118282101715611a0957611a096119b6565b60405290565b604051601f82017fffffffffffffffffffffffffffffffffffffffffffffffffffffffffffffffe016810167ffffffffffffffff81118282101715611a5657611a566119b6565b604052919050565b600067ffffffffffffffff821115611a7857611a786119b6565b50601f017fffffffffffffffffffffffffffffffffffffffffffffffffffffffffffffffe01660200190565b600082601f830112611ab557600080fd5b8135602083016000611ace611ac984611a5e565b611a0f565b9050828152858383011115611ae257600080fd5b82826020830137600092810160200192909252509392505050565b60008060408385031215611b1057600080fd5b611b198361195a565b9150602083013567ffffffffffffffff811115611b3557600080fd5b611b4185828601611aa4565b9150509250929050565b600060208284031215611b5d57600080fd5b813567ffffffffffffffff811115611b7457600080fd5b61075e84828501611aa4565b60005b83811015611b9b578181015183820152602001611b83565b50506000910152565b60008151808452611bbc816020860160208601611b80565b601f017fffffffffffffffffffffffffffffffffffffffffffffffffffffffffffffffe0169290920160200192915050565b6000602082016020835280845180835260408501915060408160051b86010192506020860160005b82811015611c65577fffffffffffffffffffffffffffffffffffffffffffffffffffffffffffffffc0878603018452611c50858351611ba4565b94506020938401939190910190600101611c16565b50929695505050505050565b8015158114610e8e57600080fd5b803561197e81611c71565b600060208284031215611c9c57600080fd5b813567ffffffffffffffff811115611cb357600080fd5b82016101008185031215611cc657600080fd5b611cce6119e5565b813567ffffffffffffffff811115611ce557600080fd5b611cf186828501611aa4565b8252506020828101359082015260408083013590820152606082013567ffffffffffffffff811115611d2257600080fd5b611d2e86828501611aa4565b6060830152506080828101359082015260a08083013590820152611d5460c08301611c7f565b60c082015260e082013567ffffffffffffffff811115611d7357600080fd5b611d7f86828501611aa4565b60e083015250949350505050565b6020815260006116416020830184611ba4565b60008060408385031215611db357600080fd5b823567ffffffffffffffff811115611dca57600080fd5b611dd685828601611aa4565b95602094909401359450505050565b602080825282518282018190526000918401906040840190835b81811015611e1d578351835260209384019390920191600101611dff565b509095945050505050565b600060208284031215611e3a57600080fd5b6116418261195a565b7f4e487b7100000000000000000000000000000000000000000000000000000000600052601160045260246000fd5b80820180821115610cb757610cb7611e43565b7f4e487b7100000000000000000000000000000000000000000000000000000000600052603260045260246000fd5b600082601f830112611ec557600080fd5b611ecf6040611a0f565b806040840185811115611ee157600080fd5b845b81811015611e1d578051845260209384019301611ee3565b60008060006101008486031215611f1157600080fd5b611f1b8585611eb4565b925084605f850112611f2c57600080fd5b6040611f3781611a0f565b8060c0870188811115611f4957600080fd5b8388015b81811015611f6e57611f5f8a82611eb4565b84526020909301928401611f4d565b50819550611f7c8982611eb4565b9450505050509250925092565b600060208284031215611f9b57600080fd5b815167ffffffffffffffff811115611fb257600080fd5b8201601f81018413611fc357600080fd5b805167ffffffffffffffff811115611fdd57611fdd6119b6565b8060051b611fed60208201611a0f565b9182526020818401810192908101908784111561200957600080fd5b6020850192505b8383101561158f57825167ffffffffffffffff81111561202f57600080fd5b8501603f8101891361204057600080fd5b6020810151612051611ac982611a5e565b8181526040838301018b101561206657600080fd5b612077826020830160408601611b80565b8452505060209283019290910190612010565b8060005b60028110156120ad57815184526020938401939091019060010161208e565b50505050565b6104e081016120c2828761208a565b604082018560005b60028110156120f4576120de83835161208a565b60409290920191602091909101906001016120ca565b50505061210460c083018561208a565b61010082018360005b601f81101561212c57815183526020928301929091019060010161210d565b50505095945050505050565b60006020828403121561214a57600080fd5b815161164181611c71565b60008251612167818460208701611b80565b9190910192915050565b805160208083015191908110156121b0577fffffffffffffffffffffffffffffffffffffffffffffffffffffffffffffffff8160200360031b1b821691505b50919050565b7f4e487b7100000000000000000000000000000000000000000000000000000000600052601260045260246000fd5b6000826121f4576121f46121b6565b500690565b81810381811115610cb757610cb7611e43565b60008261221b5761221b6121b6565b500490565b8082028115828204841417610cb757610cb7611e43565b60006020828403121561224957600080fd5b5051919050565b60007fffffffffffffffffffffffffffffffffffffffffffffffffffffffffffffffff820361228157612281611e43565b5060010190565b6001815b60018411156122c3578085048111156122a7576122a7611e43565b60018416156122b557908102905b60019390931c92800261228c565b935093915050565b6000826122da57506001610cb7565b816122e757506000610cb7565b81600181146122fd576002811461230757612323565b6001915050610cb7565b60ff84111561231857612318611e43565b50506001821b610cb7565b5060208310610133831016604e8410600b8410161715612346575081810a610cb7565b6123717fffffffffffffffffffffffffffffffffffffffffffffffffffffffffffffffff8484612288565b807fffffffffffffffffffffffffffffffffffffffffffffffffffffffffffffffff048211156123a3576123a3611e43565b029392505050565b600061164183836122cb56fea2646970667358221220008edec3435c7685af12c7dfa6ee0aaeb5d7860c36b364ac9413089048d6f94a64736f6c634300081a0033",
        "linkReferences": {}
    },
    "methodIdentifiers": {
        "AZP_BYTES()": "77c85052",
        "AZP_FIELDS()": "c2b84c31",
        "COMMAND_BYTES()": "9241b06e",
        "COMMAND_FIELDS()": "6fd061e5",
        "ISS_BYTES()": "8e9c4a7f",
        "ISS_FIELDS()": "5c80da31",
        "UPGRADE_INTERFACE_VERSION()": "ad3cb1cc",
        "_packBytes2Fields(bytes,uint256)": "e6a28005",
        "getCommandBytes()": "ca41543a",
        "initialize(address,address)": "485cc955",
        "owner()": "8da5cb5b",
        "proxiableUUID()": "52d1902d",
        "renounceOwnership()": "715018a6",
        "stringToArray(string)": "64f86ad6",
        "stringToBytes32(string)": "cfb51928",
        "transferOwnership(address)": "f2fde38b",
        "upgradeToAndCall(address,bytes)": "4f1ef286",
        "verifyEmailProof((string,bytes32,uint256,string,bytes32,bytes32,bool,bytes))": "9ecd8310"
    },
    "storageLayout": {
        "storage": [
            {
                "astId": 42535,
                "contract": "src/utils/JwtVerifier.sol:JwtVerifier",
                "label": "groth16Verifier",
                "offset": 0,
                "slot": "0",
                "type": "t_contract(IJwtGroth16Verifier)41850"
            }
        ],
        "types": {
            "t_contract(IJwtGroth16Verifier)41850": {
                "encoding": "inplace",
                "label": "contract IJwtGroth16Verifier",
                "numberOfBytes": "20"
            }
        }
    },
    "id": 73
}