{"abi":[{"type":"function","name":"DOMAIN_SEPARATOR","inputs":[],"outputs":[{"name":"","type":"bytes32","internalType":"bytes32"}],"stateMutability":"view"},{"type":"function","name":"allowance","inputs":[{"name":"owner","type":"address","internalType":"address"},{"name":"spender","type":"address","internalType":"address"}],"outputs":[{"name":"","type":"uint256","internalType":"uint256"}],"stateMutability":"view"},{"type":"function","name":"approve","inputs":[{"name":"spender","type":"address","internalType":"address"},{"name":"amount","type":"uint256","internalType":"uint256"}],"outputs":[{"name":"","type":"bool","internalType":"bool"}],"stateMutability":"nonpayable"},{"type":"function","name":"balanceOf","inputs":[{"name":"owner","type":"address","internalType":"address"}],"outputs":[{"name":"","type":"uint256","internalType":"uint256"}],"stateMutability":"view"},{"type":"function","name":"decimals","inputs":[],"outputs":[{"name":"","type":"uint8","internalType":"uint8"}],"stateMutability":"view"},{"type":"function","name":"initialize","inputs":[{"name":"name_","type":"string","internalType":"string"},{"name":"symbol_","type":"string","internalType":"string"},{"name":"decimals_","type":"uint8","internalType":"uint8"}],"outputs":[],"stateMutability":"nonpayable"},{"type":"function","name":"name","inputs":[],"outputs":[{"name":"","type":"string","internalType":"string"}],"stateMutability":"view"},{"type":"function","name":"nonces","inputs":[{"name":"","type":"address","internalType":"address"}],"outputs":[{"name":"","type":"uint256","internalType":"uint256"}],"stateMutability":"view"},{"type":"function","name":"permit","inputs":[{"name":"owner","type":"address","internalType":"address"},{"name":"spender","type":"address","internalType":"address"},{"name":"value","type":"uint256","internalType":"uint256"},{"name":"deadline","type":"uint256","internalType":"uint256"},{"name":"v","type":"uint8","internalType":"uint8"},{"name":"r","type":"bytes32","internalType":"bytes32"},{"name":"s","type":"bytes32","internalType":"bytes32"}],"outputs":[],"stateMutability":"nonpayable"},{"type":"function","name":"symbol","inputs":[],"outputs":[{"name":"","type":"string","internalType":"string"}],"stateMutability":"view"},{"type":"function","name":"totalSupply","inputs":[],"outputs":[{"name":"","type":"uint256","internalType":"uint256"}],"stateMutability":"view"},{"type":"function","name":"transfer","inputs":[{"name":"to","type":"address","internalType":"address"},{"name":"amount","type":"uint256","internalType":"uint256"}],"outputs":[{"name":"","type":"bool","internalType":"bool"}],"stateMutability":"nonpayable"},{"type":"function","name":"transferFrom","inputs":[{"name":"from","type":"address","internalType":"address"},{"name":"to","type":"address","internalType":"address"},{"name":"amount","type":"uint256","internalType":"uint256"}],"outputs":[{"name":"","type":"bool","internalType":"bool"}],"stateMutability":"nonpayable"},{"type":"event","name":"Approval","inputs":[{"name":"owner","type":"address","indexed":true,"internalType":"address"},{"name":"spender","type":"address","indexed":true,"internalType":"address"},{"name":"value","type":"uint256","indexed":false,"internalType":"uint256"}],"anonymous":false},{"type":"event","name":"Transfer","inputs":[{"name":"from","type":"address","indexed":true,"internalType":"address"},{"name":"to","type":"address","indexed":true,"internalType":"address"},{"name":"value","type":"uint256","indexed":false,"internalType":"uint256"}],"anonymous":false}],"bytecode":{"object":"0x6080604052348015600f57600080fd5b506111f28061001f6000396000f3fe608060405234801561001057600080fd5b50600436106100df5760003560e01c80633644e5151161008c57806395d89b411161006657806395d89b41146101d2578063a9059cbb146101da578063d505accf146101ed578063dd62ed3e1461020057600080fd5b80633644e5151461017457806370a082311461017c5780637ecebe00146101b257600080fd5b806318160ddd116100bd57806318160ddd1461013a57806323b872dd1461014c578063313ce5671461015f57600080fd5b806306fdde03146100e4578063095ea7b3146101025780631624f6c614610125575b600080fd5b6100ec610246565b6040516100f99190610ba7565b60405180910390f35b610115610110366004610c3c565b6102d8565b60405190151581526020016100f9565b610138610133366004610d72565b610352565b005b6003545b6040519081526020016100f9565b61011561015a366004610deb565b610451565b60025460405160ff90911681526020016100f9565b61013e6105c5565b61013e61018a366004610e28565b73ffffffffffffffffffffffffffffffffffffffff1660009081526004602052604090205490565b61013e6101c0366004610e28565b60086020526000908152604090205481565b6100ec6105eb565b6101156101e8366004610c3c565b6105fa565b6101386101fb366004610e43565b6106ab565b61013e61020e366004610eae565b73ffffffffffffffffffffffffffffffffffffffff918216600090815260056020908152604080832093909416825291909152205490565b60606000805461025590610ee1565b80601f016020809104026020016040519081016040528092919081815260200182805461028190610ee1565b80156102ce5780601f106102a3576101008083540402835291602001916102ce565b820191906000526020600020905b8154815290600101906020018083116102b157829003601f168201915b5050505050905090565b33600081815260056020908152604080832073ffffffffffffffffffffffffffffffffffffffff8716808552925280832085905551919290917f8c5be1e5ebec7d5bd14f71427d1e84f3dd0314c0f7b2291e5b200ac8c7c3b925906103409086815260200190565b60405180910390a35060015b92915050565b60095460ff16156103c4576040517f08c379a000000000000000000000000000000000000000000000000000000000815260206004820152601360248201527f414c52454144595f494e495449414c495a45440000000000000000000000000060448201526064015b60405180910390fd5b60006103d08482610f83565b5060016103dd8382610f83565b50600280547fffffffffffffffffffffffffffffffffffffffffffffffffffffffffffffff001660ff83161790556104136109f1565b60065561041e610a0a565b6007555050600980547fffffffffffffffffffffffffffffffffffffffffffffffffffffffffffffff0016600117905550565b73ffffffffffffffffffffffffffffffffffffffff831660009081526005602090815260408083203384529091528120547fffffffffffffffffffffffffffffffffffffffffffffffffffffffffffffffff81146104e5576104b38184610aad565b73ffffffffffffffffffffffffffffffffffffffff861660009081526005602090815260408083203384529091529020555b73ffffffffffffffffffffffffffffffffffffffff85166000908152600460205260409020546105159084610aad565b73ffffffffffffffffffffffffffffffffffffffff80871660009081526004602052604080822093909355908616815220546105519084610b2a565b73ffffffffffffffffffffffffffffffffffffffff80861660008181526004602052604090819020939093559151908716907fddf252ad1be2c89b69c2b068fc378daa952ba7f163c4a11628f55a4df523b3ef906105b29087815260200190565b60405180910390a3506001949350505050565b60006006546105d26109f1565b146105e4576105df610a0a565b905090565b5060075490565b60606001805461025590610ee1565b336000908152600460205260408120546106149083610aad565b336000908152600460205260408082209290925573ffffffffffffffffffffffffffffffffffffffff85168152205461064d9083610b2a565b73ffffffffffffffffffffffffffffffffffffffff84166000818152600460205260409081902092909255905133907fddf252ad1be2c89b69c2b068fc378daa952ba7f163c4a11628f55a4df523b3ef906103409086815260200190565b42841015610715576040517f08c379a000000000000000000000000000000000000000000000000000000000815260206004820152601760248201527f5045524d49545f444541444c494e455f4558504952454400000000000000000060448201526064016103bb565b600060016107216105c5565b73ffffffffffffffffffffffffffffffffffffffff8a16600090815260086020526040812080547f6e71edae12b1b97f4d1f60370fef10105fa2faae0126114a169c64845d6126c9928d928d928d9290919061077c836110cb565b9091555060408051602081019690965273ffffffffffffffffffffffffffffffffffffffff94851690860152929091166060840152608083015260a082015260c0810188905260e0016040516020818303038152906040528051906020012060405160200161081d9291907f190100000000000000000000000000000000000000000000000000000000000081526002810192909252602282015260420190565b604080517fffffffffffffffffffffffffffffffffffffffffffffffffffffffffffffffe08184030181528282528051602091820120600084529083018083525260ff871690820152606081018590526080810184905260a0016020604051602081039080840390855afa158015610899573d6000803e3d6000fd5b50506040517fffffffffffffffffffffffffffffffffffffffffffffffffffffffffffffffe0015191505073ffffffffffffffffffffffffffffffffffffffff81161580159061091457508773ffffffffffffffffffffffffffffffffffffffff168173ffffffffffffffffffffffffffffffffffffffff16145b61097a576040517f08c379a000000000000000000000000000000000000000000000000000000000815260206004820152600e60248201527f494e56414c49445f5349474e455200000000000000000000000000000000000060448201526064016103bb565b73ffffffffffffffffffffffffffffffffffffffff81811660009081526005602090815260408083208b8516808552908352928190208a90555189815291928b16917f8c5be1e5ebec7d5bd14f71427d1e84f3dd0314c0f7b2291e5b200ac8c7c3b925910160405180910390a35050505050505050565b6000610ba380610a0363ffffffff8216565b9250505090565b60007f8b73c3c69bb8fe3d512ecc4cf759cc79239f7b179b0ffacaa9a75d522b39400f6000604051610a3c9190611103565b60405180910390207fc89efdaa54c0f20c7adf612882df0950f5a951637e0307cdcb4c672f298b8bc6610a6d6109f1565b604080516020810195909552840192909252606083015260808201523060a082015260c00160405160208183030381529060405280519060200120905090565b600081831015610b19576040517f08c379a000000000000000000000000000000000000000000000000000000000815260206004820152601c60248201527f45524332303a207375627472616374696f6e20756e646572666c6f770000000060448201526064016103bb565b610b238284611196565b9392505050565b600080610b3783856111a9565b905083811015610b23576040517f08c379a000000000000000000000000000000000000000000000000000000000815260206004820152601860248201527f45524332303a206164646974696f6e206f766572666c6f77000000000000000060448201526064016103bb565b4690565b602081526000825180602084015260005b81811015610bd55760208186018101516040868401015201610bb8565b5060006040828501015260407fffffffffffffffffffffffffffffffffffffffffffffffffffffffffffffffe0601f83011684010191505092915050565b803573ffffffffffffffffffffffffffffffffffffffff81168114610c3757600080fd5b919050565b60008060408385031215610c4f57600080fd5b610c5883610c13565b946020939093013593505050565b7f4e487b7100000000000000000000000000000000000000000000000000000000600052604160045260246000fd5b600082601f830112610ca657600080fd5b813567ffffffffffffffff811115610cc057610cc0610c66565b6040517fffffffffffffffffffffffffffffffffffffffffffffffffffffffffffffffe0603f7fffffffffffffffffffffffffffffffffffffffffffffffffffffffffffffffe0601f8501160116810181811067ffffffffffffffff82111715610d2c57610d2c610c66565b604052818152838201602001851015610d4457600080fd5b816020850160208301376000918101602001919091529392505050565b803560ff81168114610c3757600080fd5b600080600060608486031215610d8757600080fd5b833567ffffffffffffffff811115610d9e57600080fd5b610daa86828701610c95565b935050602084013567ffffffffffffffff811115610dc757600080fd5b610dd386828701610c95565b925050610de260408501610d61565b90509250925092565b600080600060608486031215610e0057600080fd5b610e0984610c13565b9250610e1760208501610c13565b929592945050506040919091013590565b600060208284031215610e3a57600080fd5b610b2382610c13565b600080600080600080600060e0888a031215610e5e57600080fd5b610e6788610c13565b9650610e7560208901610c13565b95506040880135945060608801359350610e9160808901610d61565b9699959850939692959460a0840135945060c09093013592915050565b60008060408385031215610ec157600080fd5b610eca83610c13565b9150610ed860208401610c13565b90509250929050565b600181811c90821680610ef557607f821691505b602082108103610f2e577f4e487b7100000000000000000000000000000000000000000000000000000000600052602260045260246000fd5b50919050565b601f821115610f7e57806000526020600020601f840160051c81016020851015610f5b5750805b601f840160051c820191505b81811015610f7b5760008155600101610f67565b50505b505050565b815167ffffffffffffffff811115610f9d57610f9d610c66565b610fb181610fab8454610ee1565b84610f34565b6020601f8211600181146110035760008315610fcd5750848201515b7fffffffffffffffffffffffffffffffffffffffffffffffffffffffffffffffff600385901b1c1916600184901b178455610f7b565b6000848152602081207fffffffffffffffffffffffffffffffffffffffffffffffffffffffffffffffe08516915b828110156110515787850151825560209485019460019092019101611031565b508482101561108d57868401517fffffffffffffffffffffffffffffffffffffffffffffffffffffffffffffffff600387901b60f8161c191681555b50505050600190811b01905550565b7f4e487b7100000000000000000000000000000000000000000000000000000000600052601160045260246000fd5b60007fffffffffffffffffffffffffffffffffffffffffffffffffffffffffffffffff82036110fc576110fc61109c565b5060010190565b600080835461111181610ee1565b600182168015611128576001811461115b5761118b565b7fffffffffffffffffffffffffffffffffffffffffffffffffffffffffffffff008316865281151582028601935061118b565b86600052602060002060005b8381101561118357815488820152600190910190602001611167565b505081860193505b509195945050505050565b8181038181111561034c5761034c61109c565b8082018082111561034c5761034c61109c56fea26469706673582212202fc1120bcf10855a8088f2af7ba15ad6aeed51310f56a276954cdaa4e44eada564736f6c634300081a0033","linkReferences":{}},"methodIdentifiers":{"DOMAIN_SEPARATOR()":"3644e515","allowance(address,address)":"dd62ed3e","approve(address,uint256)":"095ea7b3","balanceOf(address)":"70a08231","decimals()":"313ce567","initialize(string,string,uint8)":"1624f6c6","name()":"06fdde03","nonces(address)":"7ecebe00","permit(address,address,uint256,uint256,uint8,bytes32,bytes32)":"d505accf","symbol()":"95d89b41","totalSupply()":"18160ddd","transfer(address,uint256)":"a9059cbb","transferFrom(address,address,uint256)":"23b872dd"},"storageLayout":{"storage":[{"astId":27506,"contract":"/Users/shreyaslondhe/Desktop/dev/zkemail/zk-jwt/node_modules/forge-std/src/mocks/MockERC20.sol:MockERC20","label":"_name","offset":0,"slot":"0","type":"t_string_storage"},{"astId":27508,"contract":"/Users/shreyaslondhe/Desktop/dev/zkemail/zk-jwt/node_modules/forge-std/src/mocks/MockERC20.sol:MockERC20","label":"_symbol","offset":0,"slot":"1","type":"t_string_storage"},{"astId":27510,"contract":"/Users/shreyaslondhe/Desktop/dev/zkemail/zk-jwt/node_modules/forge-std/src/mocks/MockERC20.sol:MockERC20","label":"_decimals","offset":0,"slot":"2","type":"t_uint8"},{"astId":27539,"contract":"/Users/shreyaslondhe/Desktop/dev/zkemail/zk-jwt/node_modules/forge-std/src/mocks/MockERC20.sol:MockERC20","label":"_totalSupply","offset":0,"slot":"3","type":"t_uint256"},{"astId":27543,"contract":"/Users/shreyaslondhe/Desktop/dev/zkemail/zk-jwt/node_modules/forge-std/src/mocks/MockERC20.sol:MockERC20","label":"_balanceOf","offset":0,"slot":"4","type":"t_mapping(t_address,t_uint256)"},{"astId":27549,"contract":"/Users/shreyaslondhe/Desktop/dev/zkemail/zk-jwt/node_modules/forge-std/src/mocks/MockERC20.sol:MockERC20","label":"_allowance","offset":0,"slot":"5","type":"t_mapping(t_address,t_mapping(t_address,t_uint256))"},{"astId":27590,"contract":"/Users/shreyaslondhe/Desktop/dev/zkemail/zk-jwt/node_modules/forge-std/src/mocks/MockERC20.sol:MockERC20","label":"INITIAL_CHAIN_ID","offset":0,"slot":"6","type":"t_uint256"},{"astId":27592,"contract":"/Users/shreyaslondhe/Desktop/dev/zkemail/zk-jwt/node_modules/forge-std/src/mocks/MockERC20.sol:MockERC20","label":"INITIAL_DOMAIN_SEPARATOR","offset":0,"slot":"7","type":"t_bytes32"},{"astId":27596,"contract":"/Users/shreyaslondhe/Desktop/dev/zkemail/zk-jwt/node_modules/forge-std/src/mocks/MockERC20.sol:MockERC20","label":"nonces","offset":0,"slot":"8","type":"t_mapping(t_address,t_uint256)"},{"astId":27599,"contract":"/Users/shreyaslondhe/Desktop/dev/zkemail/zk-jwt/node_modules/forge-std/src/mocks/MockERC20.sol:MockERC20","label":"initialized","offset":0,"slot":"9","type":"t_bool"}],"types":{"t_address":{"encoding":"inplace","label":"address","numberOfBytes":"20"},"t_bool":{"encoding":"inplace","label":"bool","numberOfBytes":"1"},"t_bytes32":{"encoding":"inplace","label":"bytes32","numberOfBytes":"32"},"t_mapping(t_address,t_mapping(t_address,t_uint256))":{"encoding":"mapping","key":"t_address","label":"mapping(address => mapping(address => uint256))","numberOfBytes":"32","value":"t_mapping(t_address,t_uint256)"},"t_mapping(t_address,t_uint256)":{"encoding":"mapping","key":"t_address","label":"mapping(address => uint256)","numberOfBytes":"32","value":"t_uint256"},"t_string_storage":{"encoding":"bytes","label":"string","numberOfBytes":"32"},"t_uint256":{"encoding":"inplace","label":"uint256","numberOfBytes":"32"},"t_uint8":{"encoding":"inplace","label":"uint8","numberOfBytes":"1"}}},"id":65}